:100000000C9401170C9429170C9429170C94291798
:100010000C9429170C9429170C9429170C94291760
:100020000C9429170C9429170C9429170C94101F61
:100030000C9429170C9429170C9429170C94291740
:100040000C940B190C9429170C94FF230C94D923AE
:100050000C9429170C9429170C9429170C94291720
:100060000C9429170C9429177F1F82078406840695
:100070008407827F188207840684068407827F2093
:10008000278E0F900D920D9001800881018E0182C4
:100090000683108404850E8504850E8504850E85EF
:1000A00004850E8504850E8504850E8504850E85E0
:1000B00004850E8504850E8504850E8504850E85D0
:1000C00004850E8504850E85048410840482028EC6
:1000D0000282048002920280069609940C900281AA
:1000E0001B83198519851985198519851985198520
:1000F00019851985198519851985198519851A8311
:100100000B8E01810B900D920D900F8E28278E0F74
:10011000900D920D9001800881018E01820683105E
:100120008404850E8504850E8504850E8504850E60
:100130008504850E8504850E8504850E8504850E4F
:100140008504850E8504850E8504850E8504850E3F
:100150008504850E85048410840482028E02820444
:100160008002920280069606800194078201900226
:10017000810484118304850E8504850E8504850E13
:100180008504850E8504850E8504850E8504850EFF
:100190008504850E8504850E8504850E8504850EEF
:1001A0008504850E8504850E8504850E85058310DE
:1001B000830781018E01810B900D920D900F8E2887
:1001C000278E0F900D920D9001800C8E01821B8462
:1001D000198519851985198519851985198519852F
:1001E000198519851985198519851A841C821E801F
:1001F0005D811B83198519851985198519851985CF
:1002000019851985198519851985198519851985FE
:100210001A831C817F24278E0F900D920D900B81E5
:10022000018E0B831A8519851985198519851985FC
:1002300019851985198519851985198519851984CF
:100240001A82028E0A8002920A9606800194078220
:10025000019002810484118304850E8504850E8536
:1002600004850E8504850E8504850E8504850E851E
:1002700004850E8504850E8504850E8504850E850E
:1002800004850E8504850E8504850E8504850E85FE
:10029000058310830781018E01810B900D920D90D3
:1002A0000F8E28278E0F900D920D900B81018E0BD3
:1002B000831A85198519851985198519851985194F
:1002C000851985198519851985198519841A820258
:1002D0008E0A8002920A9609940C9002811B83195F
:1002E000851985198519851985198519851985191E
:1002F00085198519851985198519851A830B8E012C
:10030000810B900D920D900F8E287F19800881121D
:10031000820683108404850E8504850E8504850E6F
:100320008504850E8504850E8504850E8504850E5D
:100330008504850E8504850E8504850E8504850E4D
:100340008504850E8504850E85048410840482024C
:100350008E0282048002920280069609940C90021A
:10036000811B8319851985198519851985198519A1
:100370008519851985198519851985198519851A8C
:10038000831C817F24278E0F900D920D9001800C8D
:100390008E01821B8419851985198519851985197E
:1003A0008519851985198519851985198519851A5C
:1003B000840A8E028208920280069609940C9002AA
:1003C000811B831985198519851985198519851941
:1003D0008519851985198519851985198519851A2C
:1003E000830B8E01810B900D920D900F8E28278E1E
:1003F0000F900D920D9001800C8E01821B84198547
:1004000019851985198519851985198519851985FC
:1004100019851985198519851A840A8E0282089210
:1004200002800696068001940782019009841A854D
:1004300019851985198519851985198519851985CC
:10044000198519851985198519851A831C81018ECD
:100450000F900D920D900F8E287F19801D821B84A6
:10046000198519851985198519851985198519859C
:10047000198519851985198519851B831D811E808C
:100480005D811B831985198519851985198519853C
:10049000198519851985198519851985198519856C
:1004A0001A831C817F24278E0F900D920D9001805E
:1004B0000881018E01820683108404850E850485DF
:1004C0000E8504850E8504850E8504850E850485BC
:1004D0000E8504850E8504850E8504850E850485AC
:1004E0000E8504850E8504850E8504850E8504849D
:1004F0001084048214820480188024801E82158156
:100500000484118304850E8504850E8504850E857B
:1005100004850E8504850E8504850E8504850E856B
:1005200004850E8504850E8504850E8504850E855B
:1005300004850E8504850E8504850E85058310834C
:100540000781018E01810B900D920D900F8E287FF7
:100550007F7F7B820784068406840782107F7F7FEB
:100560007F3F7F7F10860C83028B0983018D088378
:10057000008F078805860686098406850B84058416
:100580000D8305840D8305840D8404830F83048308
:100590000F8304830F8304830F8304830F830483F7
:1005A0000F8304830F8304830F8304830E840484E6
:1005B0000D8305840C8405850B84058609840688D3
:1005C00005860683008F0783018D0883028B0983CC
:1005D00004860C8318831883188318831883188360
:1005E000188318831883327F7F7F058607860A83E6
:1005F0000289048A0883008C028C0783008D008E98
:1006000006870589058406850886088405840A848A
:100610000A8305840A840A8305830B830B8305837D
:100620000B830B8305830B830B8305830B830B8366
:1006300005830B830B8305830B830B8305830B835C
:100640000B8305830B830B8305830B830B8305834C
:100650000B830B8305830B830B8305830B830B8336
:1006600005830B830B8305830B830B8305830B832C
:100670000B8305830B830B8305830B830B8305831C
:100680000B830B8305830B830B837F7F7F7A7F7BB9
:10069000880F8D0A9009910785068506840A8405CE
:1006A000830C8305830C8305830C83168315840ECA
:1006B0008B09900792068D01830588078305840BBB
:1006C0008304840C8304830D8304830D8304830CCF
:1006D0008404830B85048409860584068A038F01BC
:1006E00084048D0284058A058307867F7F357F1AFF
:1006F0008409840984098409847F3D8409840984E8
:10070000098409847F7422880F8C0C8F09910786D5
:1007100005860585098405840B8404830D83038481
:100720000D8303830F8302830F8302830F8302836E
:100730000F8302830F8302840D8403830D8403845B
:100740000B8504840986048605880594068E00833B
:10075000078B02830A86048316831583168303831B
:100760000E8303830D8403840C8305830B8405842B
:1007700009850685058608900A8E0C8B11867F7F79
:10078000332485118B0C8F09910786058606840911
:100790008405840B8404840B8404830D8304830DFB
:1007A0008304830D8304840B8405830B83068409EF
:1007B0008407850585098F0B8D0B8F0991078507A8
:1007C0008505840B8404830D8303840D8402830FC9
:1007D0008302830F8302830F8302830F8302830FBD
:1007E0008302840D8402840D8403840B84048607B1
:1007F0008605930791098F0D897F7F313796039680
:100800000396039616831583158315831584148424
:100810001484158315841484158414841583158415
:100820001583158415841583158415831683158403
:1008300015831683168316831584158316831683F2
:100840007F7F532486118B0C8E0A900886058506BF
:1008500085098405840B8305830C8403840D83033D
:10086000830E83038316831583168304860A83020B
:100870008B0783008E069405880586048609840408
:10088000850B8403840D8303840D8402830F83020C
:10089000830F8302830F8302830F8302830F8303FB
:1008A000830D8403830D8304840B840584098505EB
:1008B0008605860791098F0C8C0F887F7F313A91CE
:1008C0000891089108910882168316831683168270
:1008D00017821782168302870B83008B0991089277
:1008E000078605860684098505830B84168316848E
:1008F0001683168316831683168303830E8303835E
:100900000D8403830D8304840B8405840985058687
:1009100005860791098F0B8D0F877F7F32458315E1
:100920008414851386138612871183008311830034
:1009300083108301830F8302830E8402830E83035B
:10094000830D8304830C8305830B8405830B83064B
:10095000830A83078309840783098308830883093B
:100960008307830A830797029702970297118316DA
:100970008316831683168316831683168316837F46
:100980007F4A23870F8D0B90089107860586068482
:10099000098405840B8404840B8404830D830483FD
:1009A0000D8304830D8315841584148414850D8BA5
:1009B0000E89108B0E8C1486158416841584028380
:1009C0000F8302830F8302830F8302840D840284CA
:1009D0000C8503840B8404850985058605860791AB
:1009E000098F0B8D0F877F7F4D2487108C0B8F090C
:1009F00091088505860684098406840A8306830B8C
:100A00008404840C8304830D8304830D8304830D89
:100A10008316831584158414841485138512861116
:100A200087108810880F8810871186128513851407
:100A30008414841583168315960396039603967F74
:100A40007F452982178216831683158414851287A1
:100A50000D8C0D8C0D8700830D8403831683168304
:100A600016831683168316831683168316831683BE
:100A700016831683168316831683168316831683AE
:100A80001683168316831683168316837F7F4C2363
:100A9000870F8D0B8F0991078605860684098406CA
:100AA000830B8305840B8404830D8304830D8304EB
:100AB000830D8303830F8302830F8302830F8302DB
:100AC000830F8302830F8302830F8302830F8302CA
:100AD000830F8302830F8302830F8302830F8302BA
:100AE000830F8302830F8302830F8303830D8304A9
:100AF000830D8304830D8304840B8405830B830699
:100B0000840984068605860791098F0B8D0F877FE0
:100B10007F327F7F7F558409840984098409847F1B
:100B2000387F7F458A058A058A058A7F7F7F2B7FEC
:100B30007F7F7F3F19118309810181078103820330
:100B400080008006810181008007837F7F2C0183E4
:100B50000A820A810A810A810A810A810A810A813C
:100B60000A810A810B810B82088109810A810A812D
:100B70000A810A810A810A810A810A81098207831E
:100B80001304810A810A810A810A810A810A810A81
:100B9000810A810A810A810A810A810A810A810AFD
:100BA000810A810A810A810A810A810A810A810AED
:100BB000810A81120683078209810A810A810A81DA
:100BC0000A810A810A810A810A81098108820B81CE
:100BD0000B810A810A810A810A810A810A810A81BC
:100BE0000A810A820A830E488901890882078207DE
:100BF00082078208810882078207820782088901AA
:100C000089544D820682008106810181068102811C
:100C100004810381048103810481048102810581AF
:100C2000028105810281068100810781008107819F
:100C3000008108820982098209810982068407836A
:100C4000144E8106810182048202810481048102A2
:100C5000810582008206840882088406820082055B
:100C60008102810481048102820482018106815B08
:100C70006B810482048100810482048100810480EC
:100C80000080048101810281008102810281028150
:100C90000081028102810281008102810281028041
:100CA0000280028103810081028100810481008130
:100CB0000281008104810081028100810582048219
:100CC00006820482068204827F01478106810081B8
:100CD00006810181048102810481028104810381F2
:100CE00002810481028104810281058100810681E3
:100CF0000081068407820882585581068102810698
:100D000081028106810281068102810681028106BB
:100D100081028106810281068102810681028105AC
:100D200082028203830386008104840181620F8131
:100D3000048104810481028500850281048104818B
:100D40000481048104810481048104810483038279
:100D5000314A840587028203810281058101810A6B
:100D6000840786078409810181058101820382024B
:100D700087048556318100820185018204810581C5
:100D80000581058105810581058105810581058133
:100D90003B5E830181048600810383018403810516
:100DA0008202820681028107810281078102810716
:100DB0008102820681038105820383018404860007
:100DC00081068301810C810C810C810C810C811FB7
:100DD0005B8101830681008604840183038205818F
:100DE00003810682028107810281078102810781D6
:100DF00002810682028205810384018303810086C9
:100E00000481018306810C810C810C810C81285E98
:100E1000840788048302830381068102820682019B
:100E20008108810181088101810881018206820295
:100E300081068103830283048807846D5B810184BA
:100E40000581008604830382038205810381068174
:100E50000381068103810681038106810381068166
:100E60000381068103810681038106810381068156
:100E70006A7F0581018303830581008500860483E1
:100E80000284028203820482048103810581058138
:100E90000381058105810381058105810381058128
:100EA0000581038105810581038105810581038118
:100EB0000581058103810581058103810581058106
:100EC0007F1B0781038103810381038103810381E8
:100ED00003810381038103810381038103810381F2
:100EE0000381038103812B1981098109810981090A
:100EF00081048201810382028102820381018204D2
:100F000081008205850586048201810481028203B5
:100F1000810381038103820281048102810482535F
:100F20000781038103810F81038103810381038191
:100F30000381038103810381038103810381038191
:100F400003810381038103810183018208078103F7
:100F50008103810F81038103810381038103810365
:100F6000810381038103810381038103812B10812C
:100F70000C810C810C810C810C810184058100861F
:100F80000483038203820581038106810381068134
:100F90000381068103810681038106810381068125
:100FA0000381068103810681038106816A5E8301D4
:100FB0008104860081038301840381058202810705
:100FC00081028107810281078102810781028206F5
:100FD00081038105820383018404860081068301E5
:100FE000810C8102810781028106820382038204CF
:100FF000890685130A83028402810581058103869F
:1010000000860281058105810581058105810581B3
:1010100005810581058105813B588307870483018C
:10102000830381058102820681018B018B01810B83
:10103000820B8105820283018304870783661981FD
:101040000C810C810C810C81068301810486008156
:101050000383018403810582028206810281078164
:101060000281078102810781028206810381058254
:101070000383018404860081068301816A5283060A
:10108000870383018203810581018209810A810A24
:10109000810A82058102810581028301820487061B
:1010A000835E10810C810C810C810C810C81018389
:1010B0000681008604840183038205810381068200
:1010C00002810781028107810281078102810682F4
:1010D00002820581038401830381008604810183E8
:1010E0006D5785058804810482038105810B810584
:1010F00087038902820581028106810281068102BD
:101100008203830386008302840282610B8303854A
:1011100001820182008103810081038100820182BA
:10112000018503837F1A7F7F1D8C26108207810033
:10113000810581028103810481018106817F6F091C
:101140008403840681068106810681068106810664
:101150008106810681068106810681068106810657
:10116000810681068106810681038403841401803F
:101170000B800B810B800B800B810B800B800B8114
:101180000B800B800B810B800B800B810B800B8005
:101190000B810B800B800B810B800B800B810B80F4
:1011A0000E0B840384038106810681068106810675
:1011B00081068106810681068106810681068106F7
:1011C00081068106810681068106810684038412D8
:1011D000118C028C0C820B820B820C810C810C8294
:1011E0000B820B820C810C810C820B820B820B8296
:1011F0000C8D018D700F82098200820782028107A7
:1012000081038205820481058106810381078201B1
:1012100082088101810A830B830C810D810D810D70
:10122000810D810D810D810D81760F8108810182F3
:101230000682028106810481048105820282068180
:1012400002810881008109840A820B820A8100815F
:10125000088200820781028106810481048204825F
:101260000381068102820682008208826816820655
:101270008206820081068206810181068206810142
:10128000820481008104820281048100810481033F
:101290008104810081048103810481008104810330
:1012A000820281028102820481028102810281051F
:1012B0008102810281028105810281028102810510
:1012C00082008104810082068100810481008107FF
:1012D00081008104810081078100810481008107F0
:1012E00083068308820682098206827F250E820891
:1012F00082008108810181088101810881028106C3
:1013000081038106810381068104810481058104B2
:1013100081058104810681028107810281078102A2
:1013200081088100810981008109840A820B826E13
:101330001381098103810981038109810381098165
:101340000381098103810981038109810381098165
:101350000381098103810981038109810381098155
:101360000381098103810981038207820482058246
:10137000068908877F020D9B05810B810B810B81FC
:101380000B810B810B810B810B810B810B810B81FD
:101390000B810B810B810B81671485078904820502
:1013A0008203810781038107810381078202820D05
:1013B000840B860B850C830D8201820881028108D3
:1013C000810281088102830582038A068673128B5B
:1013D000048C0381088202810981028109810281D2
:1013E00009810281098102810881038C038B0481B8
:1013F00007820381088103810882028109810281B9
:10140000098102810981028109810281098177189C
:1014100086098A068304830482088203810A810282
:10142000820A8201810C8101810C8101810C810180
:10143000810C8101810C8101810C81018206800275
:10144000820281058201810382058504830483066B
:101450008C07860182108073118A048B03810782B6
:10146000028108810281088102810881028108814C
:1014700002810782028B038A04810D810D810D8117
:101480000D810D810D810D817B1886098A068304EB
:10149000830482088203810A8102820A8201810C0C
:1014A0008101810C8101810C8101810C8101810C00
:1014B0008101810C8101820A8202810A81038208F2
:1014C0008204830483068A09867F0A1382088103C3
:1014D00082088103830781038406810381008106DA
:1014E00081038100820581038101820481038102DD
:1014F00081048103810282038103810382028103CB
:1015000081048102810381048201810381058200BB
:10151000810381068100810381068403810783039F
:10152000810882038108827F16820A8203830883EE
:10153000038308830383088303810081068100817C
:101540000381008106810081038100810681008181
:101550000381018104810181038101810481018171
:101560000381018104810181038102810281028161
:101570000381028102810281038102810281028151
:101580000381038100810381038103810081038141
:101590000381038403810381048204810381048223
:1015A00004817F140E810A810A810A810A810A81DD
:1015B0000A810A810A810A810A810A810A810A81D3
:1015C0000A810A810A8A018A5A12810882028107E5
:1015D00082038106820481058205810482068103DB
:1015E00082078102820881018209810083098708BC
:1015F00083018207820382068105810681058205B7
:101600008106820481078203810882028109827631
:1016100015810A810A810A810A810A810A810A8167
:101620000A810A810A810A8101810681018106817C
:101630000181068101820482028804865E0781039B
:10164000810381038103810381038103810381037A
:10165000810381038103810381038103810381036A
:10166000812B138109810381098103810981038110
:101670000981038109810381098103810981038D26
:10168000038D03810981038109810381098103811C
:101690000981038109810381098103810981038112
:1016A0000981038109817F1886098A0682058304DE
:1016B0008208810481098202820F811081108105D4
:1016C000870281058702810B8102810B8102820AD8
:1016D00081038109820382078304830484058900CE
:1016E00081078503807F06108B028B02810C810CA1
:1016F000810C810C810C810C8A038A03810C810C82
:10170000810C810C810C810C810C8173118C028CF9
:1017100002810D810D810D810D810D810D8B038B5A
:1017200003810D810D810D810D810D810D8C028C48
:10173000701389078B058106830481088203810960
:10174000810381098202810A8102810A8102810A60
:101750008102810A8102810A8102810A8102810952
:1017600082028109810381088203810683048B053B
:10177000897F031786088A0583048303820881030F
:10178000810A8101820A8101810F810F810F810FFE
:10179000810F810B8101820A810281098202820804
:1017A0008104830483058A08867F02128A058C03DC
:1017B00081078203810881038108810381088103F5
:1017C00081088103810782038A058C0381078203D4
:1017D00081098102810981028109810281098102D5
:1017E000810782038C038A7A15830B830B830A811A
:1017F00001810981018109810181088103810781BA
:1018000003810781038106810581058105810589A1
:10181000048B038107810381078102810981018192
:101820000981008209826F21880D82068209820A5D
:101830008107810D8105810F81048006830180036A
:101840008102810481028303810281038104810476
:101850008101810481048104810181038105810466
:101860008101810381058104810181038104810457
:101870008102810381048104810281038104810347
:10188000810481038102820281058104830184072E
:1018900081178117810B81098205830D876C108563
:1018A000048803820382018205810181068101810E
:1018B00006810982088208820882098109820982D8
:1018C0002382098209825F62820C820C830C820D62
:1018D0008108820783078208827F1551860186135B
:1018E000860186636B8208820783078208810D82E6
:1018F0000D820C820C827F0C2B8203820382348245
:10190000038203820580048104800481172B8203F3
:10191000820382348203820382321F850588048217
:101920000382028205810281078101810781018191
:1019300007810182058202820383028A0484018175
:101940000B81018106810281068103810482038863
:10195000058665208307870581038104810581034E
:101960008105810381058104810381068506870441
:101970008203820281078101810781018107810140
:101980008107810282038203890585651C8B018B97
:101990000A810A8209820A810A820A810A810B81EC
:1019A0000A820A810B810B810A810B810B816920DC
:1019B00084068803820481038106810281068101F5
:1019C000810B810184048A028303820282058201E1
:1019D00081078101810781018107810281058202DE
:1019E00082038204880585651D89038903810B8133
:1019F0000B810B81008405890283038202810682A8
:101A00000B810B810B81018107810182058202829A
:101A10000382038905856524810A82098309830875
:101A20008100810781018106810281068102810591
:101A30008103810481048103810581038B018B096A
:101A4000810B810B810B81641F85068704820382D1
:101A500003810581028205810B810A820784088542
:101A60000B820B810181078101810781018205823F
:101A70000282038203890585651F85058903820328
:101A8000820282068101810781018107810B810A1F
:101A9000820883078406840783088209820A810BEF
:101AA0008B018B6222810B810A82078507850B815E
:101AB0000B810B810B810B810B810B810B810B81C6
:101AC0000B810B810B8166208307870483018303CD
:101AD00081058102820582018107810181078101DF
:101AE00081078101810781018107810181078101CE
:101AF00081078101820582028105810383018304BC
:101B0000870783660D810581058005810581058034
:101B10000581058105800581058105800581058197
:101B20000580058105810580058105812D71820370
:101B3000820382325885018568718203820382059F
:101B40008004810480048117538107810781048701
:101B50000187048107810781671081098109810656
:101B60008001810180028903850683068101810449
:101B7000820182048003807F360781068006810609
:101B80008006810581058106810581058105810524
:101B90008105810581058105810581048105810516
:101BA0008105800581058005810D0D8105800581F8
:101BB00005800581058105810481058105810581F7
:101BC00005810581058105810581058106810581E4
:101BD0000581068006810680068107068202820250
:101BE000820480038102817415840A86088202823D
:101BF00007810481078104810781038208810182B2
:101C00000A840A830B850381038201820281028296
:101C10000382018102810584038106830381078198
:101C2000048204850388018203850482762D82075D
:101C30008105860580068102810481058104810277
:101C4000810681048102800781048101810881026B
:101C5000810280098601800C82028102820C80014F
:101C60008609800281028108810181048107800246
:101C7000810481068102810481058104810281063B
:101C80008005860581078207807F0C1F85058903F3
:101C9000820382028107810181078101810B820B0E
:101CA000810A8707810B810B810B810A810B8602D8
:101CB00080018B01810483632E8101810C8002806D
:101CC0000D8002800C8101810C8002800D800280D9
:101CD000088D088002800D8002800D800280088DB2
:101CE000088002800D8002800C8101810C800280BE
:101CF0000D8002800C8101817F0D098001800380AD
:101D000001800380018003800180038001800380C3
:101D10000180038001807F110A8105810581058191
:101D20000581058105810581058105810581058183
:101D300005811581058105813A7F01000030484801
:101D40003000000000000000000000000000324CE5
:101D500000000000000000000000000040202020E3
:101D60002020201020202020202040000040404043
:101D70004040404040404040404000001020202073
:101D800020202040202020202020100000000000E3
:101D900000FC0408304080FC00000000000000004F
:101DA0000084848484844C340408700000000000A3
:101DB0000088885020508888000000000000000043
:101DC000008282829292AA4400000000000000007B
:101DD000008282828244281000000000000000007F
:101DE0000084848484844C3400000000000000409F
:101DF00040E0404040404030000000000000000053
:101E000000708880700888700000000000000000EA
:101E100000B0C880808080800000000000000000CA
:101E200000344C8484844C34040406000000000018
:101E300000B0C8848484C8B08080800000000000A6
:101E40000038448282824438000000000000000014
:101E500000B0C88484848484000000000000000076
:101E600000ACD29292929292000000000000C0401A
:101E70004040404040404040000000000000808062
:101E8000808890A0C0A09088000000000000001092
:101E90000030101010101010109060000000004072
:101EA0000040404040404040000000000000808072
:101EB00080B0C88484848484000000000000000096
:101EC00000304C8484844C34040870000000304896
:101ED000404040E040404040000000000000000062
:101EE00000384484F88044380000000000000004FA
:101EF00004344C8484844C34000000000000000052
:101F000000384480808044380000000000000080D9
:101F100080B0C8848484C8B00000000000000000C5
:101F200000700804748C8C740000000000004040B5
:101F30004020000000000000000000000000000041
:101F4000000000000000000000FF00000000000092
:101F50000000000000000000000000001028440005
:101F60000000000000000000000000000000000071
:101F700000000000000000000000000000E0202041
:101F80002020202020202020E00000000004040861
:101F900008101020204040808000000000E0808079
:101FA0008080808080808080E00000000000FE0251
:101FB00004081010204080FE000000000000828213
:101FC00082442810101010100000000000008282CF
:101FD0004428101028448282000000000000000005
:101FE00000808080808080888088804900550055EE
:101FF0000022002200000000000000000000828299
:1020000082824444282810100000000000008282D0
:102010008282828282824438000000000000FE102A
:1020200010101010101010100000000000003844B4
:102030008280601C02824438000000000000F884A6
:10204000828284F890888482000000000000384476
:102050008282828282824438080600000000F8846E
:1020600082828284F8808080000000000000384472
:102070008282828282824438000000000000C2C254
:10208000A2A292928A8A86860000000000000000C8
:1020900000C180C180A280A28094809480888088C2
:1020A00080808080800000000000000000008080B0
:1020B00080808080808080FC000000000000848898
:1020C00090A0C0A09088848200000000000002025E
:1020D0000202020202824438000000000000E040D8
:1020E00040404040404040E0000000000000848448
:1020F0008484FC84848484840000000000003C42CA
:102100008080809C8282423C000000000000FE80B3
:102110008080F88080808080000000000000FE80C9
:102120008080FC80808080FE000000000000F88439
:1021300082828282828284F80000000000003C4299
:10214000808080808080423C000000000000F88495
:102150008284F884828284F800000000000010105D
:10216000282844447C8282820000000000003C4217
:1021700099A5A5A5A59E403E00000000000038449A
:10218000820204081010001000000000000000800F
:1021900040201008102040800000000000000000D7
:1021A0000000F800F8000000000000000000000837
:1021B00010204080402010080000000000000000B7
:1021C00000C0C000C0C0408000000000000000004F
:1021D00000C0C000C0C00000000000000000384483
:1021E0008282463A0202047800000000000038446F
:1021F00082443844828244380000000000007E029D
:1022000002040408081010100000000000003C4008
:102210008080B8C482824438000000000000FC8046
:102220008080F80402028478000000000000040CA2
:1022300014244484FE040404000000000000788498
:1022400002043804020284780000000000003844D0
:1022500082020418204080FE0000000000001030C0
:10226000501010101010107C0000000000003844C6
:102270004482828282444438000000000004040842
:102280000810102020404080800000000000000066
:10229000000000000000C0C00000000000000000BE
:1022A000000000F800000000000000000000000036
:1022B000000000000000C0C04080000000000000DE
:1022C000002020F820200000000000000000001086
:1022D000925438549210000000000000C0201008F2
:1022E00008040404040408081020C0000C10204056
:1022F000408080808080404020100C0000404040A2
:1023000080000000000000000000000000002050DD
:1023100088885020528C8C7300000000000061916E
:1023200092640810264989860000000000003C42A3
:1023300040407040704040FE000000000000242437
:1023400024FF2424FF2424240000000000A0A0A0D7
:1023500000000000000000000000000000004040FD
:1023600040404040404000400000000000000000AD
:1023700000000000000000000000000C0C0C0C0C21
:102380000C0C0C0C0C0C0C0C0C0C0C202020202029
:1023900020202020200C0C0C0C0C0C0C0C0C0C0C19
:1023A0000C0C0C0C0C0C0C0C0C0C0C0C0C0C0C0C6D
:1023B0000C0C0C0C0C0C0C0C0C0C0C0C0C0C0C0C5D
:1023C0000C0C0C0C0C0C0C0C0C0C0C0C0C0C0C0C4D
:1023D0000C0C0C0C0C0C0C0C0C0C0C5D055D055D58
:1023E000055D055D055D055D055D055D055D055DDD
:1023F000055D055D055D054F055D05A6045904EE07
:102400000385030A03A3021602C0010D01800068C0
:10241000005D055D055D055D055D055D055D055DB1
:10242000055D055D055D055D055D055D055D055D9C
:10243000055D055D055D055D055D055D055D055D8C
:10244000055D055D055D055D055D055D055D055D7C
:10245000055D055D055D055D055D055D055D055D6C
:10246000055D055D055D055D055D055D055D055D5C
:10247000055D055D055D055D055D055D055D055D4C
:10248000055D055D055D055D055D055D055D055D3C
:10249000055D055D055D055D055D050C0C0C0C0C11
:1024A0000C0C0C0C0C0C0C0C110F0C1B1B1B1B1B19
:1024B0001B1B1B1B1B0F0C0C0C0C0C0C0C0C0C0C0E
:1024C0000C0C0C0C0C0C0C0C0C0C0C0C0C0C0C0C4C
:1024D0000C0C0C0C0C0C0C0C0C0C0C0C1B0C0C0C2D
:1024E0000C0C0C0C0C0C0C0C2A0C0C1D0C0C0C0CFD
:1024F0000C0C0C0C0C0C0C070C0C0C2F0B2F0B2FBA
:102500000B2F0B2F0B2F0B2F0B2F0B2F0B2F0B2FFB
:102510000B2F0B2F0B210B120B2F0B8F0A420AE9EB
:102520000982091D09BE084308FC0781070607EE5A
:10253000062F0B2F0B2F0B2F0B2F0B2F0B2F0B2FD0
:102540000B2F0B2F0B2F0B2F0B2F0B2F0B2F0B2FBB
:102550000B2F0B2F0B2F0B2F0B2F0B2F0B2F0B2FAB
:102560000B2F0B2F0B2F0B2F0B2F0B2F0B2F0B2F9B
:102570000B2F0B2F0B2F0B2F0B2F0B2F0B8E062F31
:102580000B2F0B2F0B2F0B2F0B2F0B2F0B2F0B2F7B
:102590000B2F0B2F0BE7052F0B2F0B62052F0B2F8C
:1025A0000B2F0B2F0B2F0B2F0B2F0B2F0B2F0B2F5B
:1025B0000B2F0B2F0B2F0B2F0B2F0B050808130EB8
:1025C00015110608080C0A070807080E0E0E0E0E55
:1025D0000E0E0E0E0E07070E090E0D191011121217
:1025E000100F1312060D110D151213101311100EEA
:1025F000120F170F1010090D090C0D090E0F0D0FFA
:102600000E080F0F06060C06160F0F0F0F080C070B
:102610000E0C120D0D0C0D0D0D0F01391D181DFAAC
:102620001CB81C8B1C2D1CE81BDB1BAA1B791B591F
:102630001B481B391B341B2D1B041BC71AA41A79FA
:102640001A481A171AE819AF198C1953191A190DC3
:1026500019F818E418DB18C7189E182718E817ABE4
:1026600017731731170C17E716A71662163D1610C9
:1026700016C915A4152815CB14891458140F14CE97
:1026800013991376133013ED126D122A12F511D02F
:1026900011A1116E113F112B1126110C11E110A285
:1026A000107D103E101910F40FAD0F6E0F4D0F205E
:1026B0000FE70EC20E710E3C0E0F0ED00D910D7471
:1026C0000D510D2E0DF90CCA0C700C410C020CE7CB
:1026D0000BB40B810B4E0B350B340B0000000023A9
:1026E000002600290000000000003E5B4F5B3E3EDC
:1026F0006B4F6B3E1C3E7C3E1C183C7E3C181C57AE
:102700007D571C1C5E7F5E1C00183C1800FFE7C351
:10271000E7FF0018241800FFE7DBE7FF30483A0620
:102720000E2629792926407F050507407F05253F8C
:102730005A3CE73C5A7F3E1C1C08081C1C3E7F1478
:10274000227F22145F5F005F5F06097F017F0066C2
:1027500089956A606060606094A2FFA29408047E1C
:10276000040810207E201008082A1C08081C2A08CB
:10277000081E101010100C1E0C1E0C30383E383085
:10278000060E3E0E06000000000000005F00000084
:1027900007000700147F147F14242A7F2A122313B2
:1027A00008646236495620500008070300001C22C6
:1027B00041000041221C002A1C7F1C2A08083E08F8
:1027C00008008070300008080808080000606000F9
:1027D00020100804023E5149453E00427F400072ED
:1027E000494949462141494D331814127F10274564
:1027F0004545393C4A494931412111090736494982
:102800004936464949291E000014000000403400A2
:102810000000081422411414141414004122140856
:1028200002015909063E415D594E7C1211127C7F0E
:10283000494949363E414141227F4141413E7F491C
:102840004949417F090909013E414151737F080807
:10285000087F00417F41002040413F017F08142252
:10286000417F404040407F021C027F7F0408107F70
:102870003E4141413E7F090909063E4151215E7FAB
:1028800009192946264949493203017F01033F407E
:1028900040403F1F2040201F3F4038403F63140806
:1028A000146303047804036159494D43007F414197
:1028B000410204081020004141417F04020102044A
:1028C0004040404040000307080020545478407FB7
:1028D000284444383844444428384444287F3854F1
:1028E00054541800087E090218A4A49C787F080498
:1028F000047800447D40002040403D007F10284483
:102900000000417F40007C047804787C080404784F
:102910003844444438FC1824241818242418FC7C17
:1029200008040408485454542404043F44243C40FC
:1029300040207C1C2040201C3C4030403C4428105F
:1029400028444C9090907C4464544C440008364198
:102950000000007700000041360800020102040276
:102960003C2623263C1EA1A161123A4040207A3821
:102970005454555921555579412154547841215584
:1029800054784020545579400C1E527212395555D6
:102990005559395454545939555454580000457CAC
:1029A000410002457D420001457C40F0292429F088
:1029B000F0282528F07C545545002054547C547C44
:1029C0000A097F4932494949323248484832324A35
:1029D0004848303A4141217A3A42402078009DA04F
:1029E000A07D39444444393D4040403D3C24FF24CF
:1029F00024487E4943662B2FFC2F2BFF0929F62004
:102A0000C0887E090320545479410000447D413040
:102A100048484A32384040227A007A0A0A727D0DCC
:102A200019317D2629292F28262929292630484D84
:102A30004020380808080808080808382F10C8ACD3
:102A4000BA2F102834FA00007B000008142A142240
:102A500022142A1408AA005500AAAA55AA55AA00A9
:102A60000000FF00101010FF00141414FF001010DD
:102A7000FF00FF1010F010F0141414FC001414F7F1
:102A800000FF0000FF00FF1414F404FC14141710DE
:102A90001F10101F101F1414141F00101010F0002E
:102AA0000000001F101010101F10101010F0100068
:102AB0000000FF101010101010101010FF10000078
:102AC00000FF140000FF00FF00001F10170000FCB3
:102AD00004F414141710171414F404F40000FF0085
:102AE000F714141414141414F700F714141417140E
:102AF00010101F101F141414F4141010F010F00014
:102B0000001F101F0000001F14000000FC14000034
:102B1000F010F01010FF10FF141414FF1410101018
:102B20001F00000000F010FFFFFFFFFFF0F0F0F0CB
:102B3000F0FFFFFF0000000000FFFF0F0F0F0F0F5F
:102B400038444438447C2A2A3E147E020206060297
:102B50007E027E0263554941633844443C04407E12
:102B6000201E2006027E020299A5E7A5991C2A498B
:102B70002A1C4C7201724C304A4D4D303048784816
:102B800030BC625A463D3E494949007E0101017E02
:102B90002A2A2A2A2A44445F444440514A44404055
:102BA000444A51400000FF0103E080FF0000080894
:102BB0006B6B083612362436060F090F0600001814
:102BC000180000001010003040FF0101001F01013B
:102BD0001E00191D1712003C3C3C3C000000000088
:102BE0006B235B234B233B232B231B230B23FB2236
:102BF000EB22DB22CB22BB22AB229B228B227B222D
:102C00006B225B224B223B222B221B220B22FB211D
:102C1000EB21DB21CB21BB21AB219B218B217B2114
:102C20006B215B214B213B212B211B210B21FB2005
:102C3000EB20DB20CB20BB20AB208B207B206B202C
:102C40005B204B203B202B201B200B20FB1FDB1F7E
:102C5000CB1FBB1FAB1F9B1F8B1F7B1F5B1F3B1F14
:102C60002B1F1B1F0B1FFB1EEB1EDB1ECB1EBB1ED9
:102C7000AB1E9B1E8B1E7B1E6B1E5B1E4B1E3B1ECC
:102C80002B1E1B1E0B1EFB1DEB1DDB1DCB1DBB1DC1
:102C9000AB1D9B1D8B1D7B1D6B1D5B1D4B1D3B1DB4
:102CA00000000000000000000008E02BCD2C100008
:102CB000000000001B26BB251A0000000000FB24BA
:102CC0009B2430DB237B233000000000000603043C
:102CD0000908090903070708060306050708080885
:102CE0000808080808080803030606060809080873
:102CF000080808080808040808070A080808080857
:102D0000080808080A080808040704070904070750
:102D1000070707060707040506040807080708064B
:102D20000605070808060707050305080600000052
:102D300000250028002B0000000008000201000010
:102D40000304070000000000000000000000002451
:102D50000027002A0001020408102040800102041C
:102D600008102001020408102004040404040404D0
:102D70000402020202020203030303030304E0103D
:102D8000021C07123732292D29252B390001031087
:102D9000E110031D07062E2C292D2E2E373F000093
:102DA000021013800A298064022A040000007F2B8D
:102DB000040000009F022A04000200812B0400018D
:102DC00000A00F0180961180FFB103012C2DB203EA
:102DD000012C2DB306012C2D012C2DB40107C003AD
:102DE000A20284C101C5C2020A00C3028A2AC40227
:102DF0008AEEC5010E20003601C83A010500C82838
:102E00003C2A11241FBECFEFD8E0DEBFCDBF11E0BA
:102E1000A0E0B1E0E8E3FFE502C005900D92A03725
:102E2000B107D9F723E0A0E7B1E001C01D92AE33AE
:102E3000B207E1F716E1C0E0D7E104C02197FE0137
:102E40000E948D2DCF3FD107C9F70E9442250C94D7
:102E50008F2F0C940000FC01918D228D892F90E022
:102E6000805C9F4F821B91098F739927089580E0A2
:102E700090E0892B29F00E94FB2281110C94000024
:102E80000895833081F028F4813099F08230A1F0E8
:102E900008958730A9F08830B9F08430D1F480915A
:102EA00080008F7D03C0809180008F7780938000A9
:102EB000089584B58F7702C084B58F7D84BD089551
:102EC0008091B0008F7703C08091B0008F7D809398
:102ED000B00008958E3008F08E5087708064809323
:102EE0007C0080917A00806480937A0080917A00DF
:102EF00086FDFCCF809178002091790090E0922BA4
:102F000008950F93FC018FEF80A381A329982A983D
:102F10008AE28EBD00960096009601D001C0089509
:102F2000299A1EBC00000096009601D001C00895A9
:102F30008581680F6EBD02D001D001C008950000E8
:102F40001EBC00000096009601D001C00895858146
:102F5000280F2EBD00000096009601D001C00895F4
:102F600029988BE28EBD00960096009601D001C094
:102F70000895299A1EBC00000096009601D001C059
:102F800008958681480F4EBD02D001D001C008953A
:102F900000001EBC00000096009601D001C00895FC
:102FA0008681080F0EBD00000096009601D001C07A
:102FB000089529988CE28EBD00000096009601D0FD
:102FC00001C00895299A0F910895089580E090E036
:102FD0000895FC0190819C3088F5818128E830E0DB
:102FE000281B310987FD3395220F331F220F331F12
:102FF0006217730784F0828148E552E0481B51094B
:1030000087FD5395440F551F440F551F9B014617CD
:1030100057070CF49A0122503109220F331F4FB782
:10302000F894892F90E0FC01EE0FFF1F8E0F9F1F79
:10303000FC01E458FE4F328321834FBF0895FC0109
:10304000848DDF01A80FB11DA35ABF4F2C91848D31
:1030500090E001968F739927848FA689B7892C9366
:10306000A089B1898C91837080648C93938D848DB9
:10307000981306C00288F389E02D80818F7D8083BC
:1030800008951F93CF93DF93282F30E0F901E95C77
:10309000F24D8491F901EB5AF24DD491F901E759BF
:1030A000F24DC491CC23C1F0162F81110E9441171B
:1030B000EC2FF0E0EE0FFF1FE35DF24DA591B49110
:1030C0009FB7F894111104C08C91D095D82302C0F9
:1030D000EC91DE2BDC939FBFDF91CF911F91089580
:1030E000CF93DF9390E0FC01EB5AF24D2491FC0169
:1030F000E759F24D8491882361F190E0880F991F80
:10310000FC01E55BF24DC591D491FC01E35DF24D0C
:10311000A591B491611109C09FB7F8948881209559
:1031200082238883EC912E230BC0623061F49FB719
:10313000F8948881322F309583238883EC912E2B4D
:103140002C939FBF06C08FB7F894E8812E2B28835D
:103150008FBFDF91CF9108953FB7F89480917201AE
:1031600090917301A0917401B091750126B5A89B4F
:1031700005C02F3F19F00196A11DB11D3FBFBA2F09
:10318000A92F982F8827820F911DA11DB11DBC0169
:10319000CD0142E0660F771F881F991F4A95D1F72E
:1031A00008958F929F92AF92BF92CF92DF92EF924B
:1031B000FF926B017C010E94AC184B015C01C114B1
:1031C000D104E104F104F1F00E94AC18DC01CB0160
:1031D00088199909AA09BB09883E9340A105B10540
:1031E00070F321E0C21AD108E108F10888EE880ED8
:1031F00083E0981EA11CB11CC114D104E104F104A8
:1032000019F7DDCFFF90EF90DF90CF90BF90AF9098
:103210009F908F9008951F920F920FB60F921124D6
:103220002F933F938F939F93AF93BF93809176019A
:1032300090917701A0917801B0917901309171015D
:1032400023E0230F2D3720F40196A11DB11D05C0E9
:1032500026E8230F0296A11DB11D209371018093D2
:10326000760190937701A0937801B09379018091D2
:10327000720190917301A0917401B0917501019652
:10328000A11DB11D8093720190937301A0937401ED
:10329000B0937501BF91AF919F918F913F912F9105
:1032A0000F900FBE0F901F901895CF92DF92EF9264
:1032B000FF920F931F93CF93DF936901E8018A0177
:1032C0000C0F1D1F015011099B012C0D3D1D21509C
:1032D00031090E948117CC16DD062CF49C2D8D2D12
:1032E0006E01C92FD82F219790F0C601009771F079
:1032F000FEBC02D001D001C008950000EEBC0096D3
:10330000009601D001C00895019791F7ECCF2A9A59
:10331000DF91CF911F910F91FF90EF90DF90CF90B1
:1033200008952F923F924F925F926F927F928F9269
:103330009F92AF92BF92CF92DF92EF92FF920F9344
:103340001F93CF93DF93CDB7DEB766970FB6F89490
:10335000DEBF0FBECDBF6D3009F447C5DC019296CC
:103360002C91062F10E0223059F4F801E355F34D6B
:10337000449150E04A5F5F4F487FE0E1F0E01BC0BE
:10338000E5E02E9FD0011124FD01EE55F34D45914E
:103390005491F801B097E40FF51F4491FD01EC55ED
:1033A000F34DE491213019F050E0F0E004C0E8E082
:1033B000F0E046E050E0DC0193969C909397C92C96
:1033C000D12CEC9D7001ED9DF00CFC9DF00C1124B6
:1033D0005696ED91FC9157976A3059F4EE0EFF1E08
:1033E0005796FC92EE92569755961C921E925497C1
:1033F000FCC4DC0196963C9196973323F1F04C9DEA
:1034000050014D9DB00C5C9DB00C112454964D9113
:103410005C9155974A0D5B1D5096AD90BC905197AD
:103420004A155B0550F0EE0EFF1E5796FC92EE9289
:10343000569755961C921E9254972C0130E0FC0131
:1034400066887788248835882130310509F044C1A1
:1034500080899189281639060CF036C182899389B2
:10346000681679060CF030C1C101F6E09F9E800D10
:10347000911D1124181619060CF026C1C60173E01F
:10348000880F991F7A95E1F7860D971D1816190672
:103490000CF01AC1D2015C96AD90BC905D975A9623
:1034A000ED91FC915B97F887EF8345E0649F900175
:1034B00011243E872D8751E09512CCC0C10105969D
:1034C0007C01AE16BF0609F44CC08301085F1F4F94
:1034D0009C01A301B101C2010E948117DE01119676
:1034E00080E090E0ED85FE85E80FF91FEB51F94D86
:1034F000E491ED93019685309105A1F71E824885F0
:103500003B2D88E091E0BE016A5F7F4FFE0131965E
:103510002191292359F00DB407FEFDCF4EBD0000C7
:103520000DB407FEFDCFAF81AEBD09C00DB407FEDF
:10353000FDCF3EBD00000DB407FEFDCFAEBC6E1743
:103540007F0731F7990F0DB407FEFDCF3EBD0DB4D7
:1035500007FEFDCFAEBC8150C9F60DB407FEFDCF0E
:10356000B3C04101ED85FE85E219F309FE87ED87C1
:1035700093012F5F3F4F38872F83A3014E5F5F4F2B
:103580005C874B87C30103969A878987130194E070
:10359000290E311CD3011596B88BAF87F3013696EF
:1035A000FA8BE98B6301F7E0CF0ED11CED85FE8528
:1035B000E80DF91DEB51F94D149110FF06C095016E
:1035C000A301B401C2010E94742311FF07C0950139
:1035D0004F815885B401C2010E94742312FF07C0B5
:1035E00095014B855C85B401C2010E94742313FFD1
:1035F00007C0950149855A85B401C2010E94742310
:1036000014FF06C09501A101B401C2010E947423F8
:1036100015FF07C095014F855889B401C2010E946A
:10362000742316FF07C0950149895A89B401C20164
:103630000E94742317FF06C09501A601B401C201C0
:103640000E9474230FEF801A900A8E149F0409F0D1
:10365000ADCF3AC04101212C312CED85FE85E20D24
:10366000F31DEB51F94D249129877C866B8638E058
:103670003F87498540FF03C0EF80F88406C08F81F3
:103680009885A816B90649F07501860196014B8503
:103690005C85B401C2010E94551999859695998758
:1036A000AF85A150AF87EB85FC85EC0DFD1DFC8738
:1036B000EB87A111DECFFFEF2F1A3F0A8C0C9D1C68
:1036C00005E02016310449F6D20193968C91B6E0BC
:1036D0008B9FC00111247EC3C8018097AC01440FA9
:1036E000551F22303105A1F4FA01E052F44D459105
:1036F00054915E874D87FC01E353F34DE4914E2FC7
:1037000050E058874F8380E190E09C878B8727C0EB
:1037100065E0629F8001639F100D1124F801E0565F
:10372000F34D65917491460F571FFA01E590F4909F
:10373000FE86ED86F801EE55F34D45915491FC015E
:10374000E40FF51FE491AE2FB0E0B887AF83F80126
:10375000EC55F34D0491E02FF0E0FC87EB87D201AC
:103760005A964D915C915B974F87598B223031056A
:1037700009F0F9C1EF81F885CE9EC001CF9E900D72
:10378000DE9E900D1124BC01620D731D50962D918B
:103790003C9151976217730708F01CC35C96ED903B
:1037A000FC905D97CF010696FC0123E0F595E79527
:1037B0002A95E1F7FA87E9874E155F0521F0F1E0D8
:1037C0009F1609F474C11C8A1B8A1A8A198A2989CE
:1037D0003A894B855C852417350709F4F2C2D2017A
:1037E0005C96ED90FC905D975A968D919C915B97BD
:1037F0008E159F0589F093960C9110E0EF81F88566
:103800000E9F90010F9F300D1E9F300D1124A301BC
:10381000B101C2010E9455192D853E854B895C89F5
:10382000240F351F3E8B2D8B5101188A1F868985E9
:103830009A85AF85B8898A179B0709F425C1FD01D0
:103840002D893E89E20FF31F9490992009F412C14B
:10385000D20193962C919397213009F066C097FE80
:1038600009C05A962D913C915B97A301B501C20105
:103870000E94742396FE0AC0F201228D338DA301AB
:10388000B5016F5F7F4FC2010E94742395FE0CC08B
:10389000D2015A962D913C915B97A301B5016E5FC1
:1038A0007F4FC2010E94742394FE0AC0F201228D50
:1038B000338DA301B5016D5F7F4FC2010E94742358
:1038C00093FE0CC0D2015A962D913C915B97A301B7
:1038D000B5016C5F7F4FC2010E94742392FE0AC043
:1038E000F201228D338DA301B5016B5F7F4FC201C1
:1038F0000E94742391FE0CC0D2015A962D913C91E6
:103900005B97A301B5016A5F7F4FC2010E947423D8
:1039100090FEB0C0F201228D338DA301B501695F25
:103920007F4FC2010E947423A5C030E0C5018219F7
:103930009309829F6001839FD00C929FD00C112429
:10394000C20CD31C97FE0BC0D2015A96ED90FC908E
:103950005B978901A301B601C2010E94551996FE29
:103960000DC0F20123A130E0E28CF38CB601620FAE
:10397000731F8901A301C2010E94551995FE13C04E
:10398000D20193962C91939730E05A96ED90FC904B
:103990005B97B901660F771F6C0D7D1D8901A3012F
:1039A000C2010E94551994FE11C0F20183A1282F73
:1039B00030E0E28CF38CB601F3E08F9F600D711D57
:1039C00011248901A301C2010E94551993FE15C05B
:1039D000D20193968C9193975A96ED90FC905B97B9
:1039E000282F30E0B601B4E08B9F600D711D1124CB
:1039F0008901A301C2010E94551992FE11C0F20172
:103A000083A1282F30E0E28CF38CB601F5E08F9F84
:103A1000600D711D11248901A301C2010E94551975
:103A200091FE15C0D20193968C919397282F30E088
:103A30005A96ED90FC905B97B601B6E08B9F600DB7
:103A4000711D11248901A301C2010E94551990FE24
:103A500011C0F20183A1282F30E0E28CF38CB60173
:103A6000F7E08F9F600D711D11248901A301C20130
:103A70000E9455192F8538892F5F3F4F388B2F872C
:103A800038E0A30EB11CD3CED20193968C91680E70
:103A9000711CE989FA893196FA8BE98B2B893C896B
:103AA00049855A85240F351F3C8B2B8B90CE830183
:103AB000015011098B859C85080F191F29853A85AE
:103AC00083E0220F331F8A95E1F7220D331D215029
:103AD0003109A301B101C2010E9481171F2D20E00D
:103AE00030E040E050E0AB85BC85A417B50709F491
:103AF00036C06D857E85620F731F80E090E0E9859A
:103B0000FA85E817F90721F1FC01E60FF71FE491A8
:103B1000A8E0B0E0F0E80E2F0F2361F00DB407FE2F
:103B2000FDCF09890EBD00000DB407FEFDCF0F8546
:103B30000EBD09C00DB407FEFDCF1EBD00000DB4C3
:103B400007FEFDCFEEBCF695119729F70196D7CF6A
:103B50004F5F5F4F89859A85280F391FC4CF0DB4F9
:103B600007FEFDCF2DC11EBCEF81F8852B853C855E
:103B7000E29FD001E39FB00DF29FB00D1124BA87F0
:103B8000A987D20193968C9193975C96ED90FC90C7
:103B90005D975A962D913C915B97813021F42E15BB
:103BA0003F0509F0B7C02E153F05C1F090E0EB8549
:103BB000FC85E89F8001E99F100DF89F100D1124EE
:103BC0004F815885489F9001499F300D589F300D77
:103BD0001124A301B101C2010E945519D20193968B
:103BE0008C91889FB02D1124BD8BEE24EA94E80EB1
:103BF000812C912CEE2DF0E0FC8BEB8B29853A8506
:103C0000821693060CF082C0ED85FE858491319674
:103C1000FE87ED8787FF76C08F778F5F8B87EE20DB
:103C2000E9F0D20193962C9130E0C4016F81788540
:103C30000E94652D829F6001839FD00C929FD00CC3
:103C40001124C20CD31C629F5001639FB00C729F61
:103C5000B00C1124A60CB71CFB8436C0C4016F81C4
:103C600078850E94652D6C01C20CD31C5B01F2CFDC
:103C70000DB407FEFDCF0B891C890A0D1B1D2B8976
:103C80003C892C0D3D1DA501B601C2010E94811782
:103C9000EE2069F18D898150F8F4D20193968C91D0
:103CA00090E0C80ED91EEF81F8858E9F90018F9FFE
:103CB000300D9E9F300D1124220D331DC216D306E8
:103CC00018F0A80EB91E6101FA94BFEFFB12D0CF15
:103CD000FB858F0E911C92CF0DB407FEFDCFE989B5
:103CE000EEBD0DB407FEFDCFFF85FEBDD4CF0DB4F4
:103CF00007FEFDCF09890EBD0DB407FEFDCF2F8550
:103D00002EBDCBCF8F5F880E911C78CF0DB407FEF0
:103D1000FDCF56C08301015011092B853C85020F50
:103D2000131F9101215031094F815885240F351FF0
:103D3000A301B101C2010E94811789859A851816D5
:103D400019060CF03AC02D853E852F5F3F4FED855B
:103D5000FE85849187FF10C08F778F5F90E0498543
:103D60005A85481B590B5A874987D2015A964C915C
:103D70005A975B965C910EC08F5F90E0E985FA855B
:103D8000E81BF90BFA87E987D2015C964C915C97A6
:103D90005D965C91009771F05EBD02D001D001C0CC
:103DA000089500004EBD0096009601D001C0089510
:103DB000019791F73E872D87C0CF0DB407FEFDCF49
:103DC0002A9AF20123A14F815885249FC001259F83
:103DD000900D1124D20154962D913C915597820F4C
:103DE000931F55969C938E93549781E090E066962E
:103DF0000FB6F894DEBF0FBECDBFDF91CF911F91FC
:103E00000F91FF90EF90DF90CF90BF90AF909F9079
:103E10008F907F906F905F904F903F902F9008957C
:103E20001F920F920FB60F9211242F933F934F932F
:103E30005F936F937F938F939F93AF93BF93EF9312
:103E4000FF938091700187FF05C01092850010924A
:103E500084001BC020917001022E000C330B809156
:103E6000A00190E02817390784F480917001082E92
:103E7000000C990BFC01EE0FFF1F8E0F9F1FFC0122
:103E8000E458FE4F808186FD15C0809170018F5FE0
:103E90008093700120917001022E000C330B8091F1
:103EA000A00190E028173907C4F4809170018C308C
:103EB00064F113C080917001082E000C990BFC0175
:103EC000EE0FFF1F8E0F9F1FFC01E458FE4F8081F5
:103ED00060E08F730E944118D8CF80918400909148
:103EE0008500049680349C4918F480E49CE905C060
:103EF000809184009091850004969093890080932E
:103F000088008FEF809370013BC020918400309136
:103F1000850080917001082E000C990BFC01EE0FBA
:103F2000FF1F8E0F9F1FFC01E458FE4F818192817D
:103F3000820F931F90938900809388008091700175
:103F4000082E000C990BFC01EE0FFF1F8E0F9F1F18
:103F5000FC01E458FE4F808186FF12C08091700101
:103F6000082E000C990BFC01EE0FFF1F8E0F9F1FF8
:103F7000FC01E458FE4F808161E08F730E9441187C
:103F8000FF91EF91BF91AF919F918F917F916F9131
:103F90005F914F913F912F910F900FBE0F901F9007
:103FA00018952F923F924F925F926F927F928F92CD
:103FB0009F92AF92BF92CF92DF92EF92FF920F93B8
:103FC0001F93CF93DF9300D000D0CDB7DEB79C8393
:103FD0008B836A017B010E94AC184B015C0120E0DD
:103FE00030E0A901C701B6010E94752A882309F4AF
:103FF0008AC0EB81FC812480358002811381868117
:104000009781A085B185A5019401281B390B4A0B26
:104010005B0BCA01B9010E947A2A2B013C01C10144
:10402000801B910B64EB70E00E94792D072E000C31
:10403000880B990B0E947C2AA70196010E94DB2A1B
:104040009B01AC01C301B2010E94DB2A20E034E2F3
:1040500044E759E40E94542CEB81FC81228533858E
:10406000448555850E94D12B562E472E89839A83ED
:10407000B801110F880B990B0E947C2A3B018C011F
:104080009B01AC01652D742D89819A810E94752A4E
:1040900087FD16C0B101330C880B990B0E947C2A56
:1040A0003B018C019B01AC01652D742D89819A81A6
:1040B0000E94542D181624F0652C742C09811A8145
:1040C000C301D801EB81FC8182879387A487B587E0
:1040D00020E030E0A901C701B6010E94752A2B81BA
:1040E0003C81225F3F4F7901B30187FF04C0C801C3
:1040F0000E943D2C03C0C8010E94FC2C0E94C62CCB
:10410000C7010E94E917EB81FC8186829782A08615
:10411000B1860F900F900F900F90DF91CF911F916C
:104120000F91FF90EF90DF90CF90BF90AF909F9056
:104130008F907F906F905F904F903F902F90089559
:10414000FF920F931F93CF93DF93EC018C01025FDB
:104150001F4F8E858C3008F051C0F88061E08F2DA4
:104160000E9470188E85E82FF0E09F01220F331F08
:10417000E20FF31FE458FE4F9F2D9F732081207C98
:10418000F22EF92AF0821F86188A6CE00E94592DBF
:104190009CE0899FB001112440E050E09B01240F76
:1041A000351FF901EE0FFF1F2E0F3F1FF901E458D5
:1041B000FE4F908196FD16C04F5F5F4F4C3051050A
:1041C00069F781110FC01092800082E08093810016
:1041D0001092850010928400B19A80916F008260E5
:1041E00080936F00EE85F0E0CF01880F991FE80FF4
:1041F000F91FE458FE4F8081806480836A857B8547
:104200008C859D850E94C62CC801DF91CF911F919E
:104210000F91FF900C94E9174F925F926F927F92EB
:104220008F929F92AF92BF92CF92DF92EF92FF92C6
:104230001F93CF93DF93EC018E85882319F12C8196
:104240003D813327F901E95CF24D8491F901EB5A84
:10425000F24DF490F901E759F24D1491112379F0E0
:1042600081110E944117E12FF0E0EE0FFF1FE55290
:10427000F94DA591B491EC91EF2181E009F480E032
:1042800081708E8788810E946A17BC01990F880B04
:10429000990B0E947C2A6E837F83888799878A8105
:1042A0000E946A177C0120E030E040E054E46E8117
:1042B0007F81888599850E94D02B20E030E040E006
:1042C0005BE30E94DB2A4B015C016E837F8388875E
:1042D0009987B701FF0C880B990B0E947C2A20E07C
:1042E00030E040E054E40E94D02B20E030E040E099
:1042F0005BE30E94DB2A6B017C016A877B878C87EA
:104300009D8720E030E0A901C501B4010E94542D31
:10431000181624F0C501B401905802C0C501B401BB
:104320004F84588869887A88A30192010E94752A6F
:1043300087FF05C01E821F821886198642C020E0B2
:1043400030E0A901C501B4010E94542D1816BCF437
:10435000A3019201C501B4010E94D02B4B015C0165
:10436000A301920160E070E080E89FE30E94D02BFF
:104370009B01AC01C501B4010E94542C1EC020E079
:1043800030E040E85FE3C501B4010E94D12B4B014E
:104390005C01A301920160E070E080E89FE30E946D
:1043A000D02B9B01AC01C501B4010E94542C20E02C
:1043B00030E040E85FE30E94D02B6E837F838887E4
:1043C000998720E030E0A901C701B6010E94542D71
:1043D000181624F0C701B601905802C0C701B601F3
:1043E0008B889C88AD88BE88A50194010E94752A9F
:1043F00087FF05C01A861B861C861D8642C020E0EA
:1044000030E0A901C701B6010E94542D1816BCF472
:10441000A5019401C701B6010E94D02B6B017C015C
:10442000A501940160E070E080E89FE30E94D02B3A
:104430009B01AC01C701B6010E94542C1EC020E0B4
:1044400030E040E85FE3C701B6010E94D12B6B0169
:104450007C01A501940160E070E080E89FE30E9488
:10446000D02B9B01AC01C701B6010E94542C20E067
:1044700030E040E85FE30E94D02B6A877B878C871F
:104480009D87DF91CF911F91FF90EF90DF90CF90AC
:10449000BF90AF909F908F907F906F905F904F9064
:1044A0000895CF92DF92EF92FF920F931F93CF93D5
:1044B000DF936C017A018B01C0E0D0E0CE15DF05FF
:1044C00081F0D8016D918D01D601ED91FC910190A3
:1044D000F081E02DC6010995892B11F02196EECFD0
:1044E0007E01C701DF91CF911F910F91FF90EF9057
:1044F000DF90CF900895FC01538D448D252F30E03F
:10450000842F90E0821B930B541710F0CF960895E0
:1045100001970895FC01918D828D981761F0828D2D
:10452000DF01A80FB11D5D968C91928D9F5F9F73E7
:10453000928F90E008958FEF9FEF0895FC01918D89
:10454000828D981731F0828DE80FF11D858D90E0F6
:1045500008958FEF9FEF0895CF92DF92EF92FF9231
:104560000F931F93CF93DF93EC012196FC01D4901E
:10457000DD2009F435C0FE0184910E943C257E01B6
:10458000F2E0EF0EF11CFE013196C4918C2F807881
:10459000C82ECF778701DC2FD15038F0F8018491F5
:1045A0000E9436250F5F1F4FF7CFC7018C0F911D5B
:1045B000EC01C11002C0DA94DBCF8C010F5F1F4FFA
:1045C000FC0164916F3F21F070E080E090E004C056
:1045D00064EF71E080E090E00E94D118E801EBCF39
:1045E000DF91CF911F910F91FF90EF90DF90CF90CF
:1045F00008950E947A2F81EA91E00E942B1721E012
:10460000892B09F420E0822F0895EF92FF920F93F7
:104610001F93CF93DF93EC0181E0888F9B8D8C8D6E
:10462000981305C0E889F989808185FD26C0F62E9A
:104630000B8D10E00F5F1F4F0F731127E02E8C8D35
:10464000E8120CC00FB607FCFACFE889F98980811F
:1046500085FFF5CFCE010E941F18F1CF8B8DFE0193
:10466000E80FF11DE35AFF4FF0829FB7F8940B8FCC
:10467000EA89FB89808180620AC09FB7F894EE893D
:10468000FF896083E889F9898081837080648083F1
:104690009FBF81E090E0DF91CF911F910F91FF903C
:1046A000EF900895CF93DF93EC01888D8823C9F0B4
:1046B000EA89FB89808185FD05C0A889B9898C912B
:1046C00086FD0FC00FB607FCF5CF808185FFF2CFC6
:1046D000A889B9898C9185FFEDCFCE010E941F1862
:1046E000E7CFDF91CF910895FC0180899189681708
:1046F000790708F05DC0828993894817590708F047
:1047000057C029982A9881A190E068177907D1F0BD
:104710008AE28EBD0000009601D001C0089561A319
:10472000299A1EBC00000096009601D001C0089591
:104730008581680F6EBD00000096009601D001C013
:104740000895299880A190E048175907D1F08BE28D
:104750008EBD0000009601D001C0089540A3299AA3
:104760001EBC00000096009601D001C0089586810D
:10477000480F4EBD00000096009601D001C008957C
:1047800029988CE28EBD00960096009601D001C05B
:104790000895299A3EBD02D001D001C008950000BD
:1047A0002EBD00000096009601D001C008952A9AFF
:1047B00008951F920F920FB60F9211242F933F93DB
:1047C0004F935F936F937F938F939F93AF93BF9319
:1047D000EF93FF9381EA91E00E941F18FF91EF9100
:1047E000BF91AF919F918F917F916F915F914F9109
:1047F0003F912F910F900FBE0F901F9018951F9211
:104800000F920FB60F9211242F938F939F93EF93D4
:10481000FF93E091B101F091B2018081E091B70185
:10482000F091B80182FD12C090818091BA018F5F32
:104830008F732091BB01821751F0E091BA01F0E033
:10484000EF55FE4F958F8093BA0101C08081FF9193
:10485000EF919F918F912F910F900FBE0F901F900E
:1048600018959CB59093A8029091A7029CBD8EBD0F
:1048700000000DB407FEFDCF8091A8028CBD089505
:10488000CF93DF93FC0144815581608171818FE971
:1048900092E00E945122EC0142E050E064E271E0BB
:1048A0008FE992E00E9451228C0F9D1FDF91CF91E2
:1048B0000895EF92FF920F931F930091B102109110
:1048C000B2022091AF023091B002E12CF12C40E015
:1048D00050E060E070E08FE992E00E94551910927C
:1048E000B4021092B3021092B6021092B5028091F7
:1048F0000C0390910D038130910509F448C020F01C
:10490000029709F468C09FC081E090E09093CF02C5
:104910008093CE028091CC029091CD02892B59F0E8
:104920008FEF9FEF9093BA028093B9021092BC026E
:104930001092BB020AC01092BA021092B9028FEF15
:104940009FEF9093BC028093BB0282E293E00E94AF
:1049500040248091CC029091CD02019759F410929D
:10496000BA021092B9028FEF9FEF9093BC0280932E
:10497000BB020AC08FEF9FEF9093BA028093B902F7
:104980001092BC021092BB0288E293E021C0109208
:10499000CF021092CE028091CC029091CD02892B51
:1049A00059F08FEF9FEF9093BA028093B902109263
:1049B000BC021092BB020AC01092BA021092B90255
:1049C0008FEF9FEF9093BC028093BB028EE293E047
:1049D0000E9440243CC01092CF021092CE028091DF
:1049E000CC029091CD02892B59F08FEF9FEF9093DD
:1049F000BA028093B9021092BC021092BB020AC0A4
:104A00001092BA021092B9028FEF9FEF9093BC02FE
:104A10008093BB0284E393E00E9440248FEF9FEFDA
:104A20009093BA028093B9021092BC021092BB021A
:104A300080E193E00E94402486E193E00E944024BC
:104A40008CE193E0C5CF1092CF021092CE028FEF8F
:104A50009FEF9093BA028093B9021092BC02109219
:104A6000BB021F910F91FF90EF900895299A2A9809
:104A70000E9431242A9A089529982A980E94312464
:104A80002A9A0895789484B5826084BD84B5816043
:104A900084BD85B5826085BD85B5816085BD809109
:104AA0006E00816080936E00109281008091810081
:104AB0008260809381008091810081608093810079
:104AC000809180008160809380008091B10084603B
:104AD0008093B1008091B00081608093B00080919C
:104AE0007A00846080937A0080917A00826080935B
:104AF0007A0080917A00816080937A0080917A00B8
:104B0000806880937A001092C100E091B101F09129
:104B1000B20182E08083E091AD01F091AE0110829C
:104B2000E091AF01F091B0018FEC80831092B90158
:104B3000E091B501F091B60186E08083E091B30188
:104B4000F091B401808180618083E091B301F091A4
:104B5000B401808188608083E091B301F091B40159
:104B6000808180688083E091B301F091B4018081FD
:104B70008F7D808380E692E00E94A0208FE492E007
:104B80000E94A0208EE392E00E94A02062E080912B
:104B90008C020E94701862E0809175020E94701869
:104BA0001092C8021092C9021092CA021092CB024F
:104BB000CFB7F89480917A01811127C0E3E7FDE235
:104BC0008491EFE5FDE29491E82FF0E0EE0FFF1FF6
:104BD000E55BF24DA591B491EC91E92321F461E0FC
:104BE0008AE00E94411861E08AE00E9470188CB54A
:104BF00080618CBD8CB580648CBD61E08DE00E94CD
:104C0000701861E08BE00E94701880917A018F5FCC
:104C100080937A01CFBF8CB58093A8028CB58C7F2E
:104C20008CBD8DB581608DBD8CB58F7D8CBD8CB5F7
:104C3000837F8CBD8CB58093A7028091AB02181640
:104C4000FCF461E00E94411865E070E080E090E0D3
:104C50000E94D11860E08091AB020E94411864E18B
:104C600070E080E090E00E94D11861E08091AB029A
:104C70000E94411866E970E080E090E00E94D1183F
:104C800083E08093A30282EC9DE20E94AC2280919B
:104C9000A302811105C085EB9DE20E94AC220CC0ED
:104CA000833089F485EB9DE20E94AC2286E30E946A
:104CB0003C2580EC0E94362582E08093A40281E0AE
:104CC0008093A5020FC0813029F488EA9DE20E94FA
:104CD000AC2208C0823031F486E30E943C2580EC8F
:104CE0000E9436258DE79DE20E94AC220091B10220
:104CF0001091B2022091AF023091B002E12CF12C60
:104D000040E050E060E070E08FE992E00E945519C9
:104D10008DB58FEF8093BF028093C00283E08093B4
:104D2000C40286E30E943C25C091C402C13021F137
:104D300030F0C23089F1C33009F43FC052C08091D5
:104D4000A302823011F480EC0AC0833039F480EC85
:104D50000E94362582E08093A4022BC088EC0E943A
:104D6000362580E890E09093B0028093AF02909354
:104D7000B2028093B10235C08091A302823011F457
:104D800080EAEDCF833031F480EA0E943625C0936B
:104D9000A40221C088EAE3CF8091A302823011F4FB
:104DA00080E0DDCF833039F480E00E943625C09367
:104DB000A40281E011C088E0D2CF8091A3028230AA
:104DC00011F480E6CCCF833051F480E60E94362582
:104DD00081E08093A40282E08093A502C2CF88E69E
:104DE000BECF0E9459248FB7F8944091760150911C
:104DF000770160917801709179018FBF64E670E06E
:104E000080E090E00E94D11811E0C1E0D0E088E895
:104E100092E00E940C2181E792E00E940C2120E0A8
:104E200030E040EF52E460918E0270918F028091E9
:104E30009002909191020E94DB2AAB01BC0180E6B6
:104E400092E00E94D11F20E030E040EF52E46091F8
:104E500092027091930280919402909195020E9427
:104E6000DB2AAB01BC018FE492E00E94D11F20E05D
:104E700030E040EF52E460917702709178028091C7
:104E8000790290917A020E94DB2AAB01BC018EE389
:104E900092E00E94D11F80917B01811127C0C090B8
:104EA0009202D0909302E0909402F090950220E05C
:104EB00030E0A901C701B6010E94752A8823B1F02C
:104EC00020E030E0A901C701B6010E94752A87FFE2
:104ED0007EC08091CC029091CD02019797FF6FC068
:104EE0001092CD021092CC0210937B0120E030E0B2
:104EF000A901609192027091930280919402909125
:104F000095020E94752A811102C010927B01809146
:104F100096021093960281111FC08091CC0290914D
:104F2000CD0290930D0380930C031092CD0210924A
:104F3000CC028130910551F08230910539F0892BF6
:104F400049F4D0930D03C0930C0304C010920D03D9
:104F500010920C030E9459248FB7F894C0907601E8
:104F6000D0907701E0907801F09079018FBF809127
:104F7000C8029091C902A091CA02B091CB02B701B8
:104F8000A601481B590B6A0B7B0B8091C6029091BE
:104F9000C702092E000CAA0BBB0B84179507A607A6
:104FA000B70750F40E945924C092C802D092C90297
:104FB000E092CA02F092CB020E94371728CF2091CC
:104FC000CE023091CF0228173907A4F40EC0809189
:104FD000CC029091CD02019697FD82CF2091CE0216
:104FE0003091CF02281739072CF43093CD0220934B
:104FF000CC027ACF9093CD028093CC0275CFEF9202
:10500000FF920F931F93CF93DF93EC0119821882C5
:105010001B821A821D821C8261157105B9F17B0108
:10502000FB0101900020E9F731978F01061B170B58
:10503000B8016F5F7F4F80E090E00E94B42E009730
:1050400059F0998388831B830A832C813D81232B0C
:1050500081F4FC0110820DC088819981009711F0C4
:105060000E942B2E198218821D821C821B821A829A
:105070000DC01D830C83B70188819981DF91CF9189
:105080001F910F91FF90EF900C94882FDF91CF919B
:105090001F910F91FF90EF900895CF93DF93EC0154
:1050A0008091A0018C3098F491E0980F9093A0012A
:1050B0008E8790E0FC01EE0FFF1F8E0F9F1FFC01FB
:1050C000E458FE4F88EB9BE09283818302C08FEF10
:1050D0008E877983688380E292E09B838A838CEF5A
:1050E00098E09D838C830E94AC186E837F838887B1
:1050F000998780E090E8ABEBB4E48A879B87AC8724
:10510000BD87DF91CF910895CF93DF93EC011B8290
:105110001A828AE091E0998388838AE08A8789E00D
:105120008B878CE08C871F861D8660E00E9441186B
:1051300061E08C850E947018299A61E08B850E943D
:1051400070182A9A61E08A850E94701880E890E0C1
:10515000998B888B9B8B8A8B1DA21D8A1C8A1F8A28
:105160001E8A81E08AA38BA32FEF3FEF3B8F2A8F0C
:105170001D8E1C8E198E188E8EA31CA28FEF88A3F5
:1051800089A386ED90E09F8F8E8FDF91CF91089558
:105190000F931F93CF93DF93CDB7DEB7A7970FB6CB
:1051A000F894DEBF0FBECDBF1092A4011092A301F0
:1051B00088EE93E0A0E0B0E08093A5019093A60173
:1051C000A093A701B093A80186E191E09093A2017A
:1051D0008093A10185EC90E09093AE018093AD01A6
:1051E00084EC90E09093B0018093AF0180EC90E06C
:1051F0009093B2018093B10181EC90E09093B4015F
:105200008093B30182EC90E09093B6018093B50156
:1052100086EC90E09093B8018093B7011092BA01A8
:105220001092BB011092BC011092BD0167E271E0C7
:1052300082E293E00E94FF2762E371E088E293E05C
:105240000E94FF276EE371E08EE293E00E94FF2749
:105250006EE371E084E393E00E94FF2763E471E072
:1052600080E193E00E94FF2760E571E086E193E032
:105270000E94FF276EE571E08CE193E00E94FF271A
:105280008FE992E00E94842800E010E066E271E07D
:10529000C80180539D4F0E94FF270A5F1F4F0C33A8
:1052A0001105A1F784EF91E09093C7028093C602A5
:1052B00010920D0310920C0310920F0310920E0324
:1052C0001092CD021092CC02CE0101960E94842849
:1052D0008B819C819093A2028093A1028D81809307
:1052E000A3028E818093A4028F818093A50288857A
:1052F0008093A60289858093A7028A858093A8025D
:105300008B858093A9028C858093AA028D858093DA
:10531000AB028E858093AC028F858093AD02888925
:105320008093AE0289899A899093B0028093AF02EC
:105330008B899C899093B2028093B1028D899E895A
:105340009093B4028093B3028F89988D9093B602A4
:105350008093B502898D9A8D9093B8028093B7029D
:105360008B8D9C8D9093BA028093B9028D8D9E8D0A
:105370009093BC028093BB028F8D98A19093BE0244
:105380008093BD0289A18093BF028AA18093C0024D
:105390008BA18093C1028CA18093C2028DA18093C6
:1053A000C3028EA18093C4028FA18093C50280E1C5
:1053B00090E090938902809388028FE090E0909330
:1053C0008B0280938A0283E090E090938D02809319
:1053D0008C028DEC9CECACE4BDE38093970290933F
:1053E0009802A0939902B0939A0280939B029093A3
:1053F0009C02A0939D02B0939E0221E130E0309385
:1054000072022093710222E130E030937402209303
:10541000730222E030E0309376022093750280938D
:10542000800290938102A0938202B09383028093C2
:10543000840290938502A0938602B093870266E06F
:1054400070E080E692E00E944D2865E070E08FE415
:1054500092E00E944D2864E070E08EE392E00E94AA
:105460004D28A7960FB6F894DEBF0FBECDBFDF91D3
:10547000CF911F910F910895CF93DF93C6E0D3E0B2
:10548000888199810E942B2E269782E0CA3CD807FA
:10549000B9F780911C0390911D030E942B2E8091DF
:1054A0001603909117030E942B2E80911003909168
:1054B00011030E942B2E80913403909135030E949A
:1054C0002B2E80912E0390912F030E942B2E8091E2
:1054D0002803909129030E942B2E80912203909102
:1054E0002303DF91CF910C942B2E0E94B72A08F44E
:1054F00081E00895E89409C097FB3EF4909580956B
:10550000709561957F4F8F4F9F4F9923A9F0F92F89
:1055100096E9BB279395F695879577956795B79507
:10552000F111F8CFFAF4BB0F11F460FF1BC06F5FED
:105530007F4F8F4F9F4F16C0882311F096E911C0FF
:10554000772321F09EE8872F762F05C0662371F020
:1055500096E8862F70E060E02AF09A95660F771F34
:10556000881FDAF7880F9695879597F90895990F10
:105570000008550FAA0BE0E8FEEF16161706E8071D
:10558000F907C0F012161306E407F50798F0621B3E
:10559000730B840B950B39F40A2661F0232B242B13
:1055A000252B21F408950A2609F4A140A6958FEF32
:1055B000811D811D08950E94EE2A0C945F2B0E948C
:1055C000512B38F00E94582B20F0952311F00C94A9
:1055D000482B0C944E2B11240C94932B0E94702B6F
:1055E00070F3959FC1F3950F50E0551F629FF00136
:1055F000729FBB27F00DB11D639FAA27F00DB11D4F
:10560000AA1F649F6627B00DA11D661F829F2227D7
:10561000B00DA11D621F739FB00DA11D621F839F5E
:10562000A00D611D221F749F3327A00D611D231F34
:10563000849F600D211D822F762F6A2F11249F5782
:1056400050409AF0F1F088234AF0EE0FFF1FBB1F85
:10565000661F771F881F91505040A9F79E3F510544
:1056600080F00C94482B0C94932B5F3FE4F3983E0E
:10567000D4F3869577956795B795F795E7959F5FEE
:10568000C1F7FE2B880F911D9695879597F9089580
:1056900097F99F6780E870E060E008959FEF80ECE5
:1056A000089500240A941616170618060906089588
:1056B00000240A9412161306140605060895092EEE
:1056C0000394000C11F4882352F0BB0F40F4BF2B5D
:1056D00011F460FF04C06F5F7F4F8F4F9F4F08959D
:1056E00057FD9058440F551F59F05F3F71F0479593
:1056F000880F97FB991F61F09F3F79F08795089578
:10570000121613061406551FF2CF4695F1DF08C096
:10571000161617061806991FF1CF869571056105B3
:1057200008940895E894BB2766277727CB0197F95B
:1057300008952F923F924F925F926F927F928F9235
:105740009F92AF92BF92CF92DF92EF92FF920F9310
:105750001F93CF93DF93CDB7DEB7CA1BDB0B0FB61A
:10576000F894DEBF0FBECDBF09942A8839884888D7
:105770005F846E847D848C849B84AA84B984C8846D
:10578000DF80EE80FD800C811B81AA81B981CE0F64
:10579000D11D0FB6F894DEBF0FBECDBFED01089549
:1057A0005058BB27AA270E94E82B0C945F2B0E941D
:1057B000512B38F00E94582B20F039F49F3F19F4F8
:1057C00026F40C944E2B0EF4E095E7FB0C94482B3A
:1057D000E92F0E94702B58F3BA17620773078407EA
:1057E000950720F079F4A6F50C94922B0EF4E09531
:1057F0000B2EBA2FA02D0B01B90190010C01CA018B
:10580000A0011124FF27591B99F0593F50F4503E35
:1058100068F11A16F040A22F232F342F4427585F27
:10582000F3CF469537952795A795F0405395C9F73F
:105830007EF41F16BA0B620B730B840BBAF09150F7
:10584000A1F0FF0FBB1F661F771F881FC2F70EC096
:10585000BA0F621F731F841F48F487957795679569
:10586000B795F7959E3F08F0B0CF9395880F08F055
:105870009927EE0F9795879508950E943C2D90F0FB
:105880009F3748F4911116F40C94932B60E070E06C
:1058900080E89FE3089526F01B16611D711D811D90
:1058A0000C94132D0C942E2D0E94682C0C945F2BBD
:1058B0000E94582B58F00E94512B40F029F45F3F72
:1058C00029F00C94482B51110C94932B0C944E2BD3
:1058D0000E94702B68F39923B1F3552391F3951B24
:1058E000550BBB27AA2762177307840738F09F5F01
:1058F0005F4F220F331F441FAA1FA9F335D00E2E6E
:105900003AF0E0E832D091505040E695001CCAF7DA
:105910002BD0FE2F29D0660F771F881FBB1F26179D
:1059200037074807AB07B0E809F0BB0B802DBF0174
:10593000FF2793585F4F3AF09E3F510578F00C9443
:10594000482B0C94932B5F3FE4F3983ED4F3869559
:1059500077956795B795F7959F5FC9F7880F911D64
:105960009695879597F90895E1E0660F771F881F50
:10597000BB1F621773078407BA0720F0621B730B03
:10598000840BBA0BEE1F88F7E09508950E94CD2C8A
:105990006894B1110C94932B08950E94782B88F091
:1059A0009F5798F0B92F9927B751B0F0E1F0660FE3
:1059B000771F881F991F1AF0BA95C9F714C0B13024
:1059C00091F00E94922BB1E008950C94922B672FD6
:1059D000782F8827B85F39F0B93FCCF38695779553
:1059E0006795B395D9F73EF490958095709561953C
:1059F0007F4F8F4F9F4F08950E943C2D90F09F370F
:105A000048F4911116F00C94932B60E070E080E85C
:105A10009FEB089526F41B16611D711D811D0C94CA
:105A2000132D0C942E2D882371F4772321F0985098
:105A3000872B762F07C0662311F499270DC090514C
:105A4000862B70E060E02AF09A95660F771F881F1A
:105A5000DAF7880F9695879597F908959F3F31F06B
:105A6000915020F4879577956795B795880F911D8C
:105A70009695879597F908950E94782BA0F0BEE738
:105A8000B91788F4BB279F3860F41616B11D672F2D
:105A9000782F8827985FF7CF869577956795B11D02
:105AA00093959639C8F308950E94B72A08F48FEFAA
:105AB0000895991B79E004C0991F961708F0961B6A
:105AC000881F7A95C9F780950895AA1BBB1B51E1E1
:105AD00007C0AA1FBB1FA617B70710F0A61BB70B5E
