:100000000C945A030C9482030C9482030C94820384
:100010000C9482030C9482030C9482030C9482034C
:100020000C9482030C9482030C9482030C94E30BD3
:100030000C9482030C9482030C9482030C9482032C
:100040000C94C1090C9482030C94E3080C94BD0831
:100050000C9482030C9482030C9482030C9482030C
:100060000C9482030C94820300407A10F35A00A08F
:10007000724E18090010A5D4E80000E87648170071
:1000800000E40B54020000CA9A3B000000E1F505B1
:10009000000080969800000040420F000000A086FB
:1000A00001000000102700000000E803000000002D
:1000B0006400000000000A000000000001000000D1
:1000C00000002C76D888DC674F0823DFC1DFAE59EB
:1000D000E1B1B796E5E3E453C63AE651997696E87E
:1000E000E6C28426EB898C9B62ED407C6FFCEFBC02
:1000F0009C9F40F2BAA56FA5F490055A2AF75C932D
:100100006B6CF9676DC11BFCE0E40D47FEF520E662
:10011000B500D0ED902E0300943577050080841E45
:10012000080000204E0A000000C80C333333330FA0
:10013000986E12831141EF8D2114893BE65516CF3D
:10014000FEE6DB18D1844B381BF77C1D901DA4BB49
:10015000E424203284725E228100C9F124ECA1E5FE
:100160003D27000000080002010000030407000012
:1001700000000000000000000000003E5B4F5B3EFE
:100180003E6B4F6B3E1C3E7C3E1C183C7E3C181C5C
:10019000577D571C1C5E7F5E1C00183C1800FFE753
:1001A000C3E7FF0018241800FFE7DBE7FF30483AF9
:1001B000060E2629792926407F050507407F05255B
:1001C0003F5A3CE73C5A7F3E1C1C08081C1C3E7FE3
:1001D00014227F22145F5F005F5F06097F017F00AA
:1001E0006689956A606060606094A2FFA2940804CA
:1001F0007E040810207E201008082A1C08081C2AEB
:1002000008081E101010100C1E0C1E0C30383E3842
:1002100030060E3E0E06000000000000005F0000E9
:100220000007000700147F147F14242A7F2A12235A
:100230001308646236495620500008070300001C6A
:100240002241000041221C002A1C7F1C2A08083E73
:100250000808008070300008080808080000606086
:100260000020100804023E5149453E00427F4000F4
:1002700072494949462141494D331814127F1027CC
:10028000454545393C4A494931412111090736491B
:10029000494936464949291E0000140000004034EF
:1002A00000000008142241141414141400412214F4
:1002B0000802015909063E415D594E7C1211127C1B
:1002C0007F494949363E414141227F4141413E7F7C
:1002D000494949417F090909013E414151737F085C
:1002E00008087F00417F41002040413F017F081402
:1002F00022417F404040407F021C027F7F04081063
:100300007F3E4141413E7F090909063E4151215E40
:100310007F09192946264949493203017F01033FD4
:100320004040403F1F2040201F3F4038403F631463
:1003300008146303047804036159494D43007F4165
:1003400041410204081020004141417F04020102A2
:1003500004404040404000030708002054547840C7
:100360007F284444383844444428384444287F385B
:100370005454541800087E090218A4A49C787F08DD
:1003800004047800447D40002040403D007F102858
:10039000440000417F40007C047804787C08040419
:1003A000783844444438FC1824241818242418FCB1
:1003B0007C08040408485454542404043F44243C56
:1003C0004040207C1C2040201C3C4030403C4428C5
:1003D0001028444C9090907C4464544C440008365F
:1003E00041000000770000004136080002010204CD
:1003F000023C2623263C1EA1A161123A4040207AED
:100400003854545559215555794122545478422134
:100410005554784020545579400C1E52721239556B
:100420005555593954545459395554545800004568
:100430007C410002457D420001457C407D12111245
:100440007DF0282528F07C545545002054547C54D8
:100450007C0A097F4932494949323A4444443A3294
:100460004A4848303A4141217A3A42402078009D3A
:10047000A0A07D3D4242423D3D4040403D3C24FFE6
:100480002424487E4943662B2FFC2F2BFF0929F695
:1004900020C0887E090320545479410000447D41E6
:1004A0003048484A32384040227A007A0A0A727D3F
:1004B0000D19317D2629292F28262929292630485A
:1004C0004D4020380808080808080808382F10C8C8
:1004D000ACBA2F102834FA00007B000008142A144C
:1004E0002222142A14085500550055AA55AA55AAC7
:1004F000FF55FF55FF000000FF00101010FF001413
:100500001414FF001010FF00FF1010F010F014146E
:1005100014FC001414F700FF0000FF00FF1414F493
:1005200004FC141417101F10101F101F1414141F94
:1005300000101010F0000000001F101010101F100D
:10054000101010F010000000FF101010101010100C
:100550001010FF10000000FF140000FF00FF00005B
:100560001F10170000FC04F414141710171414F4CF
:1005700004F40000FF00F714141414141414F7000A
:10058000F7141414171410101F101F141414F4145B
:100590001010F010F000001F101F0000001F1400CA
:1005A0000000FC140000F010F01010FF10FF1414F5
:1005B00014FF141010101F00000000F010FFFFFFC8
:1005C000FFFFF0F0F0F0F0FFFFFF0000000000FF81
:1005D000FF0F0F0F0F0F3844443844FC4A4A4A3487
:1005E0007E02020606027E027E026355494163389E
:1005F00044443C04407E201E2006027E020299A54F
:10060000E7A5991C2A492A1C4C7201724C304A4DAC
:100610004D303048784830BC625A463D3E494949E1
:10062000007E0101017E2A2A2A2A2A44445F44448A
:1006300040514A444040444A51400000FF0103E019
:1006400080FF000008086B6B083612362436060F50
:10065000090F06000018180000001010003040FFBD
:100660000101001F01011E00191D1712003C3C3C36
:100670003C000000000000000000250028002B00C6
:1006800000000000240027002A00040404040404DD
:100690000404020202020202030303030303010231
:1006A0000408102040800102040810200102040800
:1006B00010206D1511241FBECFEFD8E0DEBFCDBFD7
:1006C00011E0A0E0B1E0E4EDFAE302C005900D9284
:1006D000AC37B107D9F722E0ACE7B1E001C01D9219
:1006E000AF3DB207E1F713E0CAE5D3E004C02197BC
:1006F000FE010E946B1BC935D107C9F70E94761114
:100700000C94681D0C940000CF92DF92EF92FF9240
:100710000F931F93CF93DF936C017A018B01C0E09D
:10072000D0E0CE15DF0581F0D8016D918D01D601A5
:10073000ED91FC910190F081E02DC6010995892B86
:1007400011F02196EECF7E01C701DF91CF911F916D
:100750000F91FF90EF90DF90CF900895FC01538DA3
:10076000448D252F30E0842F90E0821B930B54178B
:1007700010F0CF96089501970895FC01918D828D18
:10078000981761F0828DDF01A80FB11D5D968C91E5
:10079000928D9F5F9F73928F90E008958FEF9FEFF0
:1007A0000895FC01918D828D981731F0828DE80FAC
:1007B000F11D858D90E008958FEF9FEF0895FC0166
:1007C000918D228D892F90E0805C9F4F821B910933
:1007D0008F73992708958CEA91E00E94DF0321E04E
:1007E000892B09F420E0822F0895FC01848DDF011C
:1007F000A80FB11DA35ABF4F2C91848D90E0019694
:100800008F739927848FA689B7892C93A089B18982
:100810008C91837080648C93938D848D981306C023
:100820000288F389E02D80818F7D80830895EF9287
:10083000FF920F931F93CF93DF93EC0181E0888F9A
:100840009B8D8C8D981305C0E889F989808185FD81
:1008500026C0F62E0B8D10E00F5F1F4F0F73112770
:10086000E02E8C8DE8120CC00FB607FCFACFE88999
:10087000F989808185FFF5CFCE010E94F503F1CF84
:100880008B8DFE01E80FF11DE35AFF4FF0829FB7F9
:10089000F8940B8FEA89FB89808180620AC09FB738
:1008A000F894EE89FF896083E889F98980818370F3
:1008B000806480839FBF81E090E0DF91CF911F91A2
:1008C0000F91FF90EF900895CF93DF93EC01888D07
:1008D0008823C9F0EA89FB89808185FD05C0A88944
:1008E000B9898C9186FD0FC00FB607FCF5CF8081CA
:1008F00085FFF2CFA889B9898C9185FFEDCFCE0114
:100900000E94F503E7CFDF91CF91089580E090E05A
:10091000892B29F00E94EB0381110C9400000895AB
:100920008E3008F08E508770806480937C008091B8
:100930007A00806480937A0080917A0086FDFCCFF3
:10094000809178002091790090E0922B08958EBDDF
:100950000DB407FEFDCF089508958CBD9DBD08958B
:100960000895FC016370658B8481958126813781B0
:10097000613039F0633029F091878087338722878F
:100980000895318720879387828708956F927F9299
:100990008F929F92AF92BF92CF92DF92EF92FF928F
:1009A0000F931F93CF93DF93EC014B015A01690121
:1009B0003801E881F9810284F385E02D0995E88109
:1009C000F9810288F389E02D87019601A501B40120
:1009D000CE010995A501460D571D41505109E881E9
:1009E000F9810288F389E02D9601B401CE010995C1
:1009F000E881F9810088F189E02D9301A501B40116
:100A0000CE010995C80CD91CB60161507109E88165
:100A1000F9810088F189E02D9301A501CE010995A6
:100A2000E881F9810688F789E02DCE01DF91CF9129
:100A30001F910F91FF90EF90DF90CF90BF90AF90FC
:100A40009F908F907F906F9009948F929F92AF921A
:100A5000BF92CF92DF92EF92FF920F931F93CF93AB
:100A6000DF934C016B015A01E901DC01ED91FC912E
:100A70006217730781F40417150724F48B2D5801AE
:100A8000042F182F0A191B0998012F5F3F4F048C60
:100A9000F58DE02D12C04017510709F526173707CD
:100AA00024F48D2D6901C62FD82F9E012C193D09E4
:100AB0002F5F3F4F068CF78DE02D8701A501B60112
:100AC000C4010995DF91CF911F910F91FF90EF9095
:100AD000DF90CF90BF90AF909F908F900895028449
:100AE000F385E02D0995D401ED91FC910488F589F9
:100AF000E02D9E01A501B601C4010995D401ED9137
:100B0000FC910688F789E02DC401DF91CF911F91F8
:100B10000F91FF90EF90DF90CF90BF90AF909F909C
:100B20008F900994EF92FF920F931F93DC011A9616
:100B30000D911C911B9718962D913C911997ED9151
:100B4000FC9100A0F1A1E02D7B0140E050E060E0CD
:100B500070E009951F910F91FF90EF9008954F92CB
:100B60005F926F927F928F929F92AF92BF92CF923D
:100B7000DF92EF92FF920F931F93CF93DF936C015D
:100B80002B015A0139014801DC01ED91FC910284ED
:100B9000F385E02D0995E201640C751CD601ED91F9
:100BA000FC91C615D7055CF40088F189E02D87011A
:100BB0009401A501BE01C60109952196EFCF0688D3
:100BC000F789E02DC601DF91CF911F910F91FF9022
:100BD000EF90DF90CF90BF90AF909F908F907F90DD
:100BE0006F905F904F9009948F929F92AF92BF92B7
:100BF000CF92DF92EF92FF920F931F93CF93DF93E9
:100C0000EC015B014A016901E881F9810284F38505
:100C1000E02D099595012C0D3D1D21503109E881EC
:100C2000F9810488F589E02D78018401A401B501DA
:100C3000CE010995E881F9810688F789E02DCE017A
:100C4000DF91CF911F910F91FF90EF90DF90CF90A8
:100C5000BF90AF909F908F9009948F929F92AF9288
:100C6000BF92CF92DF92EF92FF920F931F93CF9399
:100C7000DF93EC015B014A0169017801E881F981A8
:100C80000284F385E02D0995C80CD91C860101501A
:100C90001109E881F9810488F589E02D9501A40105
:100CA000B501CE010995E881F9810688F789E02D23
:100CB000CE01DF91CF911F910F91FF90EF90DF90C8
:100CC000CF90BF90AF909F908F9009940895EF922E
:100CD000FF920F931F93DC01ED91FC9100A0F1A115
:100CE000E02D09951F910F91FF90EF9008950F93BC
:100CF0001F93DC01ED91FC91068CF78DE02D099599
:100D00001F910F9108950F931F93DC01ED91FC91BA
:100D1000048CF58DE02D09951F910F910895DC014C
:100D2000ED91FC910084F185E02D09942F923F9282
:100D30004F925F926F927F928F929F92AF92BF92EB
:100D4000CF92DF92EF92FF920F931F93CF93DF9397
:100D500000D000D000D0CDB7DEB72C017E836D83EC
:100D60006A015901C801FC82EB824801841A950A84
:100D700097FE03C091948194910835012D813E81A5
:100D8000621A730A77FE03C0719461947108681443
:100D900079045CF43A2D2B2D5C01832F922F3D8139
:100DA0002E81DE82CD82C32ED22EAD81BE81AA16C7
:100DB000BB065CF43C2D2D2D6C01832F922F3D81C1
:100DC0002E81BE82AD82A32EB22E85012D813E8161
:100DD000021B130B1C012C183D0837FE03C0319475
:100DE00021943108780117FF03C03FEFE31AF30A9B
:100DF000F594E794C816D9062CF08FEF9FEF9A83ED
:100E0000898304C0A1E0B0E0BA83A9832D813E812B
:100E1000A216B30624F1D201ED91FC910484F5856C
:100E2000E02D2B813C816814790424F44D815E818E
:100E3000B60103C0A6016D817E81C2010995E21849
:100E4000F308F7FE06C029813A81C20ED31EE00ED8
:100E5000F11E8D819E8101969E838D83D7CF26962C
:100E60000FB6F894DEBF0FBECDBFDF91CF911F91BB
:100E70000F91FF90EF90DF90CF90BF90AF909F9039
:100E80008F907F906F905F904F903F902F9008953C
:100E9000089580E090E00895FC0190819C3088F5F1
:100EA000818128E830E0281B310987FD3395220F26
:100EB000331F220F331F6217730784F0828148E5C6
:100EC00052E0481B510987FD5395440F551F440FAD
:100ED000551F9B01461757070CF49A012250310900
:100EE000220F331F4FB7F894892F90E0FC01EE0FCB
:100EF000FF1F8E0F9F1FFC01E957FE4F3283218396
:100F00004FBF08950C94370FAF92BF92CF92EF92DC
:100F1000FF920F931F93CF93DF93EC01262F888DC1
:100F2000998D009709F040C06A3059F41D861C86DF
:100F30002C898E859F8538E0239F800D911D11247B
:100F400041C06D3009F4AAC08E898823C1F03C8964
:100F50008C859D8546E0349F800D911D1124488528
:100F60005985481759075CF41D861C868E859F8518
:100F700048E0349F800D911D11249F878E87EA8859
:100F8000FB88088919894E855F856C857D85CC88AD
:100F9000CE010E945C0F2C898C859D8536E0239FB5
:100FA000800D911D112442C06A3079F41D861C8683
:100FB0002C89FC013696E4918E859F852E9F800DAD
:100FC000911D11249F878E8769C06D3009F466C01A
:100FD000FC0134963491631708F460C03196E491B3
:100FE000E61708F45BC0FC01329665917491422FBC
:100FF00050E0431B510937E0349F5001359FB00C3E
:101000001124A60EB71EF501329634913196E49163
:10101000332311F0E1110DC0F5013496E4912C89D0
:101020008C859D85E29F800D911D11249D878C8765
:1010300035C0F501359644915E89552311F16C89CF
:10104000E32FF0E0E40FF11D47FDFA956E9FD0010C
:101050006F9FB00D11244C855D854A0F5B1FE8859D
:10106000F985E417F5076CF41D861C86FC0136969D
:10107000E4918E859F856E9F800D911D11249F8721
:101080008E87EA88FB88088919894E855F856C857B
:101090007D85CC88CE010E945C0FBECF81E090E0C0
:1010A000DF91CF911F910F91FF90EF90CF90BF9064
:1010B000AF9008950F931F93CF93DF93EC01888136
:1010C0009981009729F02A813B812617370788F4F8
:1010D0008B016F5F7F4F0E94921C009761F0998394
:1010E00088831B830A832C813D81232B11F4FC010F
:1010F000108281E001C080E0DF91CF911F910F91BC
:101100000895CF93DF93EC0188819981009711F0C6
:101110000E94091C198218821D821C821B821A825D
:10112000DF91CF910895EF92FF920F931F93CF938A
:10113000DF93EC0186179707C1F0FB010081118155
:101140000115110539F0E480F580B7010E945A08B5
:10115000811104C0CE010E94810807C0FD82EC828B
:10116000B801888199810E94611DCE01DF91CF91E4
:101170001F910F91FF90EF9008951F920F920FB65D
:101180000F9211242F933F934F935F936F937F930D
:101190008F939F93AF93BF93EF93FF938CEA91E06C
:1011A0000E94F503FF91EF91BF91AF919F918F91B5
:1011B0007F916F915F914F913F912F910F900FBE53
:1011C0000F901F9018951F920F920FB60F92112437
:1011D0002F938F939F93EF93FF93E091BC01F09136
:1011E000BD018081E091C201F091C30182FD12C076
:1011F00090818091C5018F5F8F732091C601821706
:1012000051F0E091C501F0E0E455FE4F958F8093D9
:10121000C50101C08081FF91EF919F918F912F9126
:101220000F900FBE0F901F90189590E0FC01EE59A3
:10123000FE4F2491FC01E256F94F3491FC01E65730
:10124000F94FE491EE2309F43CC0222339F1233015
:1012500091F038F42130A9F0223001F584B58F7D6A
:1012600012C0273091F02830A1F02430B9F48091D9
:1012700080008F7D03C0809180008F7780938000F5
:101280000DC084B58F7784BD09C08091B0008F7781
:1012900003C08091B0008F7D8093B000F0E0EE0F2E
:1012A000FF1FEA58F94FA591B4919FB7F8946111C7
:1012B00004C08C913095382302C0EC913E2B3C93B6
:1012C0009FBF08953FB7F894809182019091830168
:1012D000A0918401B091850126B5A89B05C02F3F40
:1012E00019F00196A11DB11D3FBFBA2FA92F982F4C
:1012F0008827820F911DA11DB11DBC01CD0142E0C7
:10130000660F771F881F991F4A95D1F708958F920E
:101310009F92AF92BF92CF92DF92EF92FF926B01BA
:101320007C010E9462094B015C01C114D104E104FB
:10133000F104F1F00E946209DC01CB0188199909DE
:10134000AA09BB09883E9340A105B10570F321E0CD
:10135000C21AD108E108F10888EE880E83E0981ED1
:10136000A11CB11CC114D104E104F10419F7DDCFB3
:10137000FF90EF90DF90CF90BF90AF909F908F90B5
:1013800008951F920F920FB60F9211242F933F933F
:101390008F939F93AF93BF9380917E0190917F0134
:1013A000A0918001B091810130917D0123E0230F54
:1013B0002D3720F40196A11DB11D05C026E8230F8D
:1013C0000296A11DB11D20937D0180937E01909313
:1013D0007F01A0938001B09381018091820190915F
:1013E0008301A0918401B09185010196A11DB11DD9
:1013F0008093820190938301A0938401B09385012F
:10140000BF91AF919F918F913F912F910F900FBE00
:101410000F901F9018950F931F93CF93DF93EC01BC
:10142000162F072F8091490290914A020E94AD0425
:10143000EAA1FBA190818AA5892B8083E8A1F9A16B
:10144000908189A5809589238083802F0E94A7049D
:10145000812F0E94A704E8A1F9A1908189A5892B79
:101460008083DF91CF911F910F9108951F93CF93A8
:10147000DF93EC01162F8091490290914A020E945D
:10148000AD04EAA1FBA190818AA5892B8083E8A104
:10149000F9A1908189A5809589238083812F0E945D
:1014A000A704E8A1F9A1908189A5892B8083DF9108
:1014B000CF911F9108951F93CF93DF93EC01162FC7
:1014C0008091490290914A020E94AD04EAA1FBA1D9
:1014D00090818AA5809589238083E8A1F9A19081D4
:1014E00089A5809589238083812F0E94A704E8A184
:1014F000F9A1908189A5892B8083DF91CF911F91DC
:101500000895CF93DF93EC0163706D8B623041F0EF
:10151000633041F0613011F088E005C088E603C017
:1015200088EC01C088EA8A8F80E890E099878887F4
:101530009B878A878B8D811103C08A8D877F02C02C
:101540008A8D88608A8F66E3CE010E945B0A6A8D6D
:10155000CE01DF91CF910C94360AAF92BF92CF9219
:10156000DF92EF92FF920F931F93CF93DF93EC01E3
:101570005B017A0169016AE20E945B0AB501CE0152
:101580000E940B0AB601CE010E940B0A6BE2CE014B
:101590000E945B0AB701CE010E940B0AB801CE017E
:1015A0000E940B0A6CE2CE01DF91CF911F910F9147
:1015B000FF90EF90DF90CF90BF90AF900C945B0ABC
:1015C000AF92BF92CF92DF92EF92FF920F931F9351
:1015D000CF93DF936C015901E801FC01208531852F
:1015E00062177307B4F582859385481759078CF500
:1015F000FB01EA0DFB1D2E173F071CF45901A61A2B
:10160000B70A9A012C0F3D1F821793071CF4EC01B7
:10161000C41BD50B8E01040F151F01501109950134
:10162000260F371F21503109C6010E94AD0A1C1632
:101630001D067CF48501B701C601023011052CF0AE
:101640000E940B0A01501109F6CF0E940B0A219744
:10165000EECFDF91CF911F910F91FF90EF90DF9030
:10166000CF90BF90AF900895CF92DF92EF92FF920C
:101670000F931F93CF93DF937C01E9016801FC0175
:10168000808591856817790704F52285338542178F
:101690005307DCF49B012C0F3D1F821793071CF4AA
:1016A000EC01C61BD70B9E01260F371F21503109B5
:1016B0008A01C7010E94AD0A1C161D0634F4B6014A
:1016C000C7010E940B0A2197F7CFDF91CF911F919D
:1016D0000F91FF90EF90DF90CF900895CF92DF921F
:1016E000EF92FF920F931F93CF93DF937C01E90159
:1016F0006801FC01808591856817790704F582856A
:10170000938548175907DCF49A012C0F3D1F821767
:1017100093071CF4EC01C41BD50B8A010C0F1D1F91
:10172000015011099B01C7010E94AD0A1C161D063C
:1017300034F4B601C7010E940B0A2197F7CFDF915D
:10174000CF911F910F91FF90EF90DF90CF90089570
:10175000EF92FF920F931F93CF93DF93DC011896C4
:10176000ED91FC9119976E177F07FCF41A96ED9195
:10177000FC911B974E175F07C4F477FD16C057FD09
:1017800014C0E9017C018A010F5F1F4F9B012F5F8D
:101790003F4F0E94AD0ABE01C701DF91CF911F915B
:1017A0000F91FF90EF900C940B0ADF91CF911F9156
:1017B0000F91FF90EF900895611102C060E201C0A7
:1017C00061E20C945B0A1F920F920FB60F921124E4
:1017D0002F933F934F935F936F937F938F939F9339
:1017E000AF93BF93EF93FF9380917C0187FF05C078
:1017F00010928500109284001BC020917C01022E63
:10180000000C330B8091AB0190E02817390784F46A
:1018100080917C01082E000C990BFC01EE0FFF1F3C
:101820008E0F9F1FFC01E957FE4F808186FD15C07A
:1018300080917C018F5F80937C0120917C01022E3E
:10184000000C330B8091AB0190E028173907C4F4EA
:1018500080917C018C3064F113C080917C01082E52
:10186000000C990BFC01EE0FFF1F8E0F9F1FFC0158
:10187000E957FE4F808160E08F730E941509D8CF31
:101880008091840090918500049680349C4918F4DE
:1018900080E49CE905C080918400909185000496C5
:1018A00090938900809388008FEF80937C013BC0E8
:1018B000209184003091850080917C01082E000CDD
:1018C000990BFC01EE0FFF1F8E0F9F1FFC01E957C4
:1018D000FE4F81819281820F931F909389008093A4
:1018E000880080917C01082E000C990BFC01EE0F02
:1018F000FF1F8E0F9F1FFC01E957FE4F808186FF5F
:1019000012C080917C01082E000C990BFC01EE0F97
:10191000FF1F8E0F9F1FFC01E957FE4F808161E082
:101920008F730E941509FF91EF91BF91AF919F9125
:101930008F917F916F915F914F913F912F910F9078
:101940000FBE0F901F9018952F923F924F925F926B
:101950006F927F928F929F92AF92BF92CF92DF92BF
:10196000EF92FF920F931F93CF93DF9300D000D09D
:1019700000D0CDB7DEB79E838D836A017B010E94C4
:10198000620969837A838B839C83ED81FE818085E4
:101990009185A285B38589809A80AB80BC80881AA6
:1019A000990AAA0ABB0A82819381092E000CAA0B0C
:1019B000BB0B88159905AA05BB0508F098C020E067
:1019C00030E0A901C701B6010E945318882309F429
:1019D00084C0AD81BE8116962D903C9017971496C9
:1019E0000D911C911597C101801B910B64EB70E068
:1019F0000E94431B072E000C880B990B0E945A185B
:101A0000A70196010E94B9182B013C01C501B40140
:101A10000E9458189B01AC01C301B2010E94B91881
:101A200020E034E244E759E40E94321AED81FE815D
:101A300024853585468557850E94AF19962E872EB9
:101A4000782E692EB801110F880B990B0E945A1835
:101A50005B018C019B01AC01692D782D872D962DA2
:101A60000E94531887FD16C0B101330C880B990BE7
:101A70000E945A185B018C019B01AC01692D782DE5
:101A8000872D962D0E94321B181624F0A92CB82CF5
:101A9000072D162DC501D801ED81FE81848795871C
:101AA000A687B78720E030E0A901C701B6010E94F0
:101AB00053182D813E81205F3F4F7901B50187FF8B
:101AC00004C0C8010E941B1A03C0C8010E94DA1A90
:101AD0000E94A41AC7010E944C0789819A81AB8198
:101AE000BC81ED81FE8180879187A287B38726968E
:101AF0000FB6F894DEBF0FBECDBFDF91CF911F911F
:101B00000F91FF90EF90DF90CF90BF90AF909F909C
:101B10008F907F906F905F904F903F902F9008959F
:101B2000FF920F931F93CF93DF93EC018C01005F23
:101B30001F4F88898C3008F050C0F8808F2D0E948C
:101B4000180F8889E82FF0E09F01220F331FE20F62
:101B5000F31FE957FE4F9F2D9F732081207CF22EAB
:101B6000F92AF082198A1A8A6CE00E94371B9CE0DD
:101B7000899FB001112440E050E09B01240F351FE4
:101B8000F901EE0FFF1F2E0F3F1FF901E957FE4F1E
:101B9000908196FD16C04F5F5F4F4C30510569F73D
:101BA00081110FC01092800082E08093810010921A
:101BB000850010928400B19A80916F0082608093BA
:101BC0006F00E889F0E0CF01880F991FE80FF91F37
:101BD000E957FE4F8081806480836C857D858E858A
:101BE0009F850E94A41AC801DF91CF911F910F9188
:101BF000FF900C944C074F925F926F927F928F925E
:101C00009F92AF92BF92CF92DF92EF92FF92CF93CB
:101C1000DF93EC0188810E949004BC01990F880B2E
:101C2000990B0E945A186C837D838E839F838A81CF
:101C30000E9490047C0120E030E040E054E46C819C
:101C40007D818E819F810E94AE1920E030E040E0CE
:101C50005BE30E94B9184B015C016C837D838E832A
:101C60009F83B701FF0C880B990B0E945A1820E044
:101C700030E040E054E40E94AE1920E030E040E063
:101C80005BE30E94B9186B017C01688779878A87BA
:101C90009B8720E030E0A901C501B4010E94321BFE
:101CA000181624F0C501B401905802C0C501B40152
:101CB0004D845E846F847888A30192010E9453183A
:101CC00087FF05C01C821D821E821F8242C020E049
:101CD00030E0A901C501B4010E94321B1816BCF402
:101CE000A3019201C501B4010E94AE194B015C0130
:101CF000A301920160E070E080E89FE30E94AE19CA
:101D00009B01AC01C501B4010E94321A1EC020E043
:101D100030E040E85FE3C501B4010E94AF194B0118
:101D20005C01A301920160E070E080E89FE30E9403
:101D3000AE199B01AC01C501B4010E94321A20E02A
:101D400030E040E85FE30E94AE196C837D838E83B0
:101D50009F8320E030E0A901C701B6010E94321B39
:101D6000181624F0C701B601905802C0C701B60189
:101D700089889A88AB88BC88A50194010E94531871
:101D800087FF05C0188619861A861B8642C020E088
:101D900030E0A901C701B6010E94321B1816BCF43D
:101DA000A5019401C701B6010E94AE196B017C0127
:101DB000A501940160E070E080E89FE30E94AE1905
:101DC0009B01AC01C701B6010E94321A1EC020E07F
:101DD00030E040E85FE3C701B6010E94AF196B0134
:101DE0007C01A501940160E070E080E89FE30E941F
:101DF000AE199B01AC01C701B6010E94321A20E066
:101E000030E040E85FE30E94AE19688779878A87EF
:101E10009B87DF91CF91FF90EF90DF90CF90BF90A5
:101E2000AF909F908F907F906F905F904F900895AC
:101E300090E0FC01E256F94F2491FC01E657F94F7E
:101E40008491882399F090E0880F991FFC01E05855
:101E5000F94FA591B491FC01EA58F94F85919491FD
:101E60008FB7F894EC91E22BEC938FBF0895CF924B
:101E7000DF92EF92FF920F931F93CF93DF937C013A
:101E80006B0100E810E020E830E040E050E060E066
:101E900070E00E94AD0AC0E0D0E4B601C7010E9424
:101EA0000B0A2197D1F7DF91CF911F910F91FF90EE
:101EB000EF90DF90CF9008952F923F924F925F92D4
:101EC0006F927F928F929F92AF92BF92CF92DF924A
:101ED000EF92FF920F931F93CF93DF93CDB7DEB7AF
:101EE0006B970FB6F894DEBF0FBECDBF9B8F8A8F66
:101EF0005B011A01D22E1F830E833701C982DC01D8
:101F000058962D913C9159972115310509F0E6C05D
:101F100018968D919C911997681779070CF0CDC18F
:101F20001A968D919C911B97481759070CF0C5C1C3
:101F30008C2C912CFB0126E0C29EE00DF11D11249A
:101F4000FB87EA871E161F060CF0B7C1A40183E0C9
:101F5000440F551F8A95E1F75D874C87CA01820DB2
:101F6000931D181619060CF0A8C157968C91811173
:101F700004C05FEA5D1508F4D394AA8DBB8DED9182
:101F8000FC9111970284F385E02DCD010995B5E010
:101F9000DB9EC0011124F5013596FF87EE87BB82D9
:101FA000AA8225019C012A193B09398B288BA101A2
:101FB000485F5F4F5B8B4A8BE889F989E40DF51D1B
:101FC000EA58FE4F5491588761013D822C828885E2
:101FD00080FF13C0AA8DBB8DED91FC91B981B1300A
:101FE00031F40484F585E02D2E813F8116C00684EE
:101FF000F785E02DEE80FF801AC0EE81FF81E615A7
:10200000F705F1F0AA8DBB8DED91FC91B981B1304E
:1020100051F40484F585E02D9301A601B2018A8D67
:102020009B8D09950DC00684F785E02D7301840111
:1020300094014C815D816A817B818A8D9B8D09959C
:10204000E885E695E887FFEFCF1ADF0A2C813D810E
:10205000280D391D3D832C834A895B89C416D5061A
:1020600009F0B5CF5FEF451A550A8A819B81880D2B
:10207000991D9B838A83AE85BF854A165B0609F04E
:102080009BCFEE81FF81E615F70509F4F4C0EA8DD8
:10209000FB8DA081B181F981F13079F4B5016B5FDD
:1020A0007F4F5096ED91FC915197830128E030E0ED
:1020B000A1018A8D9B8D0995DEC06A857B85681993
:1020C00079091E96ED91FC911F9773010C851D8572
:1020D0009401A1018A8D9B8D0995CDC0F90134969B
:1020E000E491DE1AF901329685919491B7E0DB9E76
:1020F000800D911D1124F901259134913B8B2A8B80
:10210000FC01259134912901FC013296C49031964D
:1021100034913E87329614913196D4904981423061
:1021200058F0612E012E000C77088D2D0D2C000C1F
:10213000990B9987888704C019861886612C712CA1
:10214000AA8DBB8DED91FC9111970284F385E02D52
:10215000CD010995B9818B2E912C689CC001699C99
:10216000900D789C900D1124FC01EA0DFB1DFD875C
:10217000EC871A82712C612CE12F110FFF0B950156
:102180002E0F3F1F3B872A87AC0CB11CA5014E0FB9
:102190005F1F5F8B4E8BC1018D0D911DD7FC9A95F2
:1021A000998F888F9E85691608F065C0862D90E00E
:1021B00048855985480F591F489D9001499D300D0C
:1021C000589D300D1124D101A20FB31FB98BA88BDC
:1021D000EC85FD85FD83EC83AA84BB84DA80FA85D7
:1021E000DF1A288D398D280F391F3D8B2C8B8D2DB3
:1021F0008A0D4E895F89A416B506C1F1877041F436
:10220000C2010196EA89FB89E40DF51D74902C0149
:1022100077FE21C0AA8DBB8DED91FC91B981B130C3
:1022200061F40484F585E02D2E813F814C895D8920
:10223000B5018A8D9B8D09950EC00684F785E02D2A
:10224000EE80FF8084019401488959896C817D81E9
:102250008A8D9B8D0995770CEFEFAE1ABE0A2C8103
:102260003D81280D391D3D832C83C1CF3A813C0D22
:102270003A83639497CFAA8DBB8DED91FC91119712
:102280000688F789E02DCD016B960FB6F894DEBF76
:102290000FBECDBFDF91CF911F910F91FF90EF90B7
:1022A000DF90CF90BF90AF909F908F907F906F9076
:1022B0005F904F903F902F9009946B960FB6F894D3
:1022C000DEBF0FBECDBFDF91CF911F910F91FF9069
:1022D000EF90DF90CF90BF90AF909F908F907F90C6
:1022E0006F905F904F903F902F900895CF93DF9322
:1022F000CDB7DEB7A0970FB6F894DEBF0FBECDBF47
:10230000789484B5826084BD84B5816084BD85B5D0
:10231000826085BD85B5816085BD80916E008160DC
:1023200080936E0010928100809181008260809382
:102330008100809181008160809381008091800084
:102340008160809380008091B10084608093B100AF
:102350008091B00081608093B00080917A008460A9
:1023600080937A0080917A00826080937A008091D5
:102370007A00816080937A0080917A0080688093EF
:102380007A001092C1001092D9021092DA02809164
:10239000D3020E94180F8091D2020E94180F8091E0
:1023A000D20290E0FC01E657F94FE491F0E0EE0F25
:1023B000FF1FEA58F94F259134913093CF022093B3
:1023C000CE022091D30230E0F901E657F94FE491B3
:1023D000F0E0EE0FFF1FEA58F94F459154915093EA
:1023E000D1024093D002FC01E256F94FE491E09310
:1023F000D702F901E256F94FE491E093D8021FB7F2
:10240000F89480918601811124C0E4E9F6E084917A
:10241000E8EAF6E09491E82FF0E0EE0FFF1FE058B5
:10242000F94FA591B491EC91E92321F461E08AE0A0
:102430000E9415098AE00E94180F8CB580618CBD3E
:102440008CB580648CBD8DE00E94180F8BE00E94DB
:10245000180F809186018F5F809386011FBF80E5F2
:102460008093490281E080934A02E091CE02F0918C
:10247000CF0290818091D7028095892380838091BB
:10248000D4028F3F19F10E94180F61E08091D402AD
:102490000E94150964EF71E080E090E00E948709D6
:1024A00060E08091D4020E94150964EF71E080E041
:1024B00090E00E94870961E08091D4020E94150992
:1024C00064EF71E080E090E00E9487091092C802FA
:1024D00081E08093C90261E08EEA92E00E945B0A8B
:1024E00064EF71E080E090E00E94870961E18EEA8C
:1024F00092E00E945B0A65E070E080E090E00E945C
:1025000087096AE38EEA92E00E945B0A65E08EEA40
:1025100092E00E94360A65E070E080E090E00E9460
:10252000870966E28EEA92E00E945B0A64E08EEA26
:1025300092E00E94360A61E070E080E090E00E9444
:10254000870962EF8EEA92E00E945B0A61E08EEA00
:1025500092E00E94360A61E070E080E090E00E9424
:10256000870963E18EEA92E00E945B0A66EB8EEADD
:1025700092E00E945B0A6FEF8EEA92E00E94360AB8
:1025800066E08EEA92E00E94360A60EE8EEA92E001
:102590000E945B0A05E111E024E2E22E21E0F22E26
:1025A000F80161918F018EEA92E00E94360AE016EE
:1025B000F106B1F761EE8EEA92E00E945B0A06E056
:1025C00011E095E1E92E91E0F92EF80161918F017A
:1025D0008EEA92E00E94360AE016F106B1F761EB4E
:1025E0008EEA92E00E945B0A68E08EEA92E00E9426
:1025F000360A62E08EEA92E00E94360A61E070E0FC
:1026000080E090E00E94870964EB8EEA92E00E94ED
:102610005B0A67E08EEA92E00E94360A61E070E0B1
:1026200080E090E00E94870960EC8EEA92E00E94D0
:102630005B0A6AE08EEA92E00E94360A62E08EEA65
:1026400092E00E94360A61E070E080E090E00E9433
:10265000870961EC8EEA92E00E945B0A62E08EEAF2
:1026600092E00E94360A61E070E080E090E00E9413
:10267000870965EC8EEA92E00E945B0A60E58EEACB
:1026800092E00E94360A63E68EEA92E00E94360AE1
:1026900061E070E080E090E00E94870967EC8EEADC
:1026A00092E00E945B0A60E08EEA92E00E94360AA5
:1026B00061E070E080E090E00E9487096AE28EEAC3
:1026C00092E00E945B0A60E070E08EEA92E00E9475
:1026D0000B0A60E870E08EEA92E00E940B0A6BE25F
:1026E0008EEA92E00E945B0A60E070E08EEA92E07F
:1026F0000E940B0A60E870E08EEA92E00E940B0AEA
:1027000063E38EEA92E00E945B0A60E070E08EEA8A
:1027100092E00E940B0A60E870E08EEA92E00E946C
:102720000B0A60E070E08EEA92E00E940B0A809152
:10273000C902811104C08091C802877F03C08091C3
:10274000C80288608093C80260E08EEA92E00E942E
:10275000810A69E28EEA92E00E945B0A61E070E021
:1027600080E090E00E9487096CE28EEA92E00E948D
:102770005B0A61E070E080E090E00E94870960E021
:1027800070E08EEA92E00E94370F60E070E08EEA1F
:1027900092E00E94370F81E792E00E94900D8EE553
:1027A00092E00E94900D8BE492E00E94900DE091E7
:1027B000BC01F091BD0182E08083E091B801F0910D
:1027C000B9011082E091BA01F091BB018FEC8083D6
:1027D0001092C401E091C001F091C10186E08083B4
:1027E000E091BE01F091BF01808180618083E09122
:1027F000BE01F091BF01808188608083E091BE01BD
:10280000F091BF01808180688083E091BE01F091EA
:10281000BF0180818F7D808361E08EEA92E00E941B
:10282000810A64E670E080E090E00E948709EE246F
:10283000EA94FE2CDD24D3948091B6029091B702E5
:10284000049744F08091B8029091B90218161906C5
:102850000CF4EEC0F092BF02E092BE021092C102F0
:102860001092C002D092C2021C8E1B8E1E8E1D8E34
:1028700018A21F8E6EE070E0CE014B960E945A089F
:10288000811105C0CE014B960E9481080AC08EE0DE
:1028900090E098A38F8F62E671E08B8D9C8D0E94F3
:1028A000611D80907D0290907E02A0907F02B0908A
:1028B00080021E8A1D8A188E1F8A1A8E198EBE01EA
:1028C000655E7F4FCE0145960E9493088E010F5F93
:1028D0001F4F22E044E0C501B4010E9401165C01D3
:1028E000FC0101900020E9F73197E81BF90B892BD7
:1028F000C9F03097D9F0098D1A8D0E0F1F1FB8013E
:10290000CE0145960E945A08882361F02D893E89A0
:10291000898D9A8DB501820F931F0E94611D1A8FB8
:10292000098F04C0CE0145960E948108BE016B5EEE
:102930007F4FCE014B960E9493088D899E890E94FD
:10294000091C1A8219821C821B821E821D82BE01F2
:10295000655E7F4FCE0101960E9493080D811E8116
:102960000A5F1F4FB801CE0101960E945A088823C2
:1029700009F475C029813A818D819E8161E771E0FA
:10298000820F931F0E94611D1E830D83BE016F5F26
:102990007F4FCE014B960E94930889819A810E94B5
:1029A000091C4F8D58A16B8D7C8D8EEA92E00E94A0
:1029B000840342E050E068E771E08EEA92E00E9412
:1029C00084038B8D9C8D0E94091C89E992E00E94F2
:1029D000FB0D84E892E00E94FB0D20E030E040EF28
:1029E00052E460919D0270919E0280919F029091AD
:1029F000A0020E94B918AB01BC0181E792E00E94DD
:102A0000A40C20E030E040EF52E46091A10270910C
:102A1000A2028091A3029091A4020E94B918AB0176
:102A2000BC018EE592E00E94A40C0E94860404CFB3
:102A300000E010E023E030E040E050E060E070E0D3
:102A40008EEA92E00E94AD0A83E090E09093BB0290
:102A50008093BA021092BD021092BC02FBCECE014E
:102A600001960E94810892CFCF93DF93EC01809171
:102A7000AB018C3098F491E0980F9093AB01888B68
:102A800090E0FC01EE0FFF1F8E0F9F1FFC01E95726
:102A9000FE4F88EB9BE09283818302C08FEF888B8F
:102AA000798368831B821A8280E292E09D838C8303
:102AB0008CEF98E09F838E830E94620968877987F4
:102AC0008A879B8780E090E8ABEBB4E48C879D8796
:102AD000AE87BF87DF91CF910895ECEAF1E01382D2
:102AE000128288EE93E0A0E0B0E084839583A68311
:102AF000B78388E291E09183808385EC90E09587AD
:102B0000848784EC90E09787868780EC90E0918BB7
:102B1000808B81EC90E0938B828B82EC90E0958BA4
:102B2000848B86EC90E0978B868B118E128E138EA1
:102B3000148EE9E4F2E080E580831182EEEAF2E0AF
:102B40001382128280E890E0958384839783868342
:102B50009187808793878287158A158614861786C2
:102B6000168681E0848B2FEF3FEF338B228B318BE6
:102B7000208B868B178A118E108E8AE391E09183C9
:102B800080838AE084A389E085A38CE086A3E9E9B9
:102B9000F2E080E190E0918380838FE090E0938386
:102BA00082838DEC9CECACE4BDE385879687A78798
:102BB000B08B818B928BA38BB48BE4E8F2E021E1A4
:102BC00030E03183208322E130E033832283858724
:102BD0009687A787B08B818B928BA38BB48B66E093
:102BE00070E081E792E00E94341565E070E08EE5C8
:102BF00092E00E94341563E070E08BE492E00C9464
:102C00003415EF920F931F93CF93DF93E80147FDA5
:102C100002C034E001C034E1042E000C550B57FF14
:102C200003C0519541955109E32E022F242FAE0187
:102C30000E942116CE01DF91CF911F910F91EF904D
:102C40000895A9E0B0E0E7E2F6E10C947D196A018D
:102C5000122FB02E2BE3201720F0FF24F394F00E58
:102C600002C02CE3F22E0F2D27E0AE014F5F5F4F25
:102C70000E947B17BC014981842F8970813031F01B
:102C8000E1FC06C0E0FE06C090E205C09DE203C084
:102C90009BE201C090E05E2D507143FF3CC091115A
:102CA00002C083E001C084E0811718F4212F281BA3
:102CB00001C020E051110BC0F601822F30E28823C1
:102CC00019F031938150FBCFC20ED11C20E0992323
:102CD00029F0D6019C93F60131966F01C601039647
:102CE000E2FE0AC03EE4D6013C9341E411964C93C7
:102CF000119712963C9306C03EE6F601308341E6FA
:102D000041833283FC01322F40E2332309F442C075
:102D100041933150FACF42FF44C0911102C083E089
:102D200001C084E0811718F4212F281B01C020E086
:102D300051110BC0F601822F30E2882319F0319334
:102D40008150FBCFC20ED11C20E0992329F0D6017F
:102D50009C93F60131966F01C6010396E2FE0BC00B
:102D600039E4D6013C933EE411963C93119736E446
:102D700012963C9307C039E6F60130833EE6318374
:102D800036E63283FC01322F40E2332319F04193BF
:102D90003150FBCFFC01E20FF11D10828EEF9FEF4F
:102DA000A6C021E030E0911102C020E030E016160C
:102DB00017061CF4FB01319602C0E1E0F0E02E0F93
:102DC0003F1FBB2021F0EB2DF0E0319602C0E0E088
:102DD000F0E02E0F3F1FE12FF0E02E173F071CF40D
:102DE000121B212F01C020E08E2D887159F4F601AD
:102DF000822F30E2882319F031938150FBCFC20E2D
:102E0000D11C20E0992329F0D6019C93F60131963C
:102E10006F0151110BC0F601822F90E3882319F046
:102E200091938150FBCFC20ED11C20E00F2D060FD5
:102E30009A81342F307144FF03C0913309F401505B
:102E4000101624F4093018F008E001C001E0AB01CD
:102E500077FF02C040E050E0FB01E41BF50BA1E06E
:102E6000B0E0AC0FBD1FEA0FFB1F8EE2A82E4B0196
:102E7000801A91080B2D10E01195019511094F3F13
:102E8000BFEF5B0721F4D601AC9211966D01641778
:102E900075072CF08416950614F4818101C080E337
:102EA000415051093196D60111967D0140175107C5
:102EB00024F0D6018C936701E2CF6417750739F4CB
:102EC000963320F4953319F4311101C081E3F601F2
:102ED0008083F701822F90E2882319F0919381502B
:102EE000FBCFF701E20FF11D108280E090E0299600
:102EF000ECE00C949919283008F027E03327DA0128
:102F0000990F311D87FD916000966105710539F4B7
:102F100032602E5F3D9330E32A95E1F708959F3F9D
:102F200030F080387105610509F03C5F3C5F3D93EE
:102F3000913008F08068911DDF93CF931F930F931A
:102F4000FF92EF92192F987F9695E92F9695969577
:102F5000E90FFF27EE53FF4F99273327EE24FF2475
:102F6000A701E70105900894079428F4360FE71E9F
:102F7000F81E491F511D660F771F881F991F069461
:102F8000A1F70590079428F4E70EF81E491F561F75
:102F9000C11D770F881F991F661F0694A1F7059022
:102FA000079428F4F80E491F561FC71FD11D880F1C
:102FB000991F661F771F0694A1F70590079420F4C8
:102FC000490F561FC71FD81F990F661F771F881FED
:102FD0000694A9F784911095177041F0D695C7957E
:102FE00057954795F794E7941A95C1F7E8E6F0E00E
:102FF00068941590159135916591959105907FE2B2
:103000007395E118F10A430B560BC90BD009C0F7B1
:10301000E10CF11E431F561FC91FD01D7EF47033F3
:1030200011F48A95E6CFE894015030F0080F0AF4C5
:103030000027021708F4202F2395022F7A3328F057
:1030400079E37D932A95E9F710C07D932A9589F657
:10305000069497956795379517951794E118F10A97
:10306000430B560BC90BD00998F023957E917395AD
:103070007A3308F070E37C932013B8F77E91706187
:103080007D9330F0839571E37D9370E32A95E1F7AA
:103090001124EF90FF900F911F91CF91DF9199270D
:1030A00087FD909508950E94951808F481E0089591
:1030B000E89409C097FB3EF49095809570956195D2
:1030C0007F4F8F4F9F4F9923A9F0F92F96E9BB2788
:1030D0009395F695879577956795B795F111F8CF04
:1030E000FAF4BB0F11F460FF1BC06F5F7F4F8F4F6F
:1030F0009F4F16C0882311F096E911C0772321F065
:103100009EE8872F762F05C0662371F096E8862FFC
:1031100070E060E02AF09A95660F771F881FDAF753
:10312000880F9695879597F90895990F0008550F80
:10313000AA0BE0E8FEEF16161706E807F907C0F03D
:1031400012161306E407F50798F0621B730B840B45
:10315000950B39F40A2661F0232B242B252B21F41F
:1031600008950A2609F4A140A6958FEF811D811DBF
:1031700008950E94CC180C943D190E942F1938F024
:103180000E94361920F0952311F00C9426190C9406
:103190002C1911240C9471190E944E1970F3959FEB
:1031A000C1F3950F50E0551F629FF001729FBB273E
:1031B000F00DB11D639FAA27F00DB11DAA1F649FDA
:1031C0006627B00DA11D661F829F2227B00DA11D8D
:1031D000621F739FB00DA11D621F839FA00D611D13
:1031E000221F749F3327A00D611D231F849F600D34
:1031F000211D822F762F6A2F11249F5750409AF05D
:10320000F1F088234AF0EE0FFF1FBB1F661F771FE8
:10321000881F91505040A9F79E3F510580F00C94B3
:1032200026190C9471195F3FE4F3983ED4F3869508
:1032300077956795B795F795E7959F5FC1F7FE2B53
:10324000880F911D9695879597F9089597F99F672F
:1032500080E870E060E008959FEF80EC089500241E
:103260000A941616170618060906089500240A94EB
:1032700012161306140605060895092E0394000C71
:1032800011F4882352F0BB0F40F4BF2B11F460FF00
:1032900004C06F5F7F4F8F4F9F4F089557FD905829
:1032A000440F551F59F05F3F71F04795880F97FB0A
:1032B000991F61F09F3F79F08795089512161306C4
:1032C0001406551FF2CF4695F1DF08C016161706F3
:1032D0001806991FF1CF8695710561050894089528
:1032E000E894BB2766277727CB0197F908952F929B
:1032F0003F924F925F926F927F928F929F92AF9286
:10330000BF92CF92DF92EF92FF920F931F93CF93D2
:10331000DF93CDB7DEB7CA1BDB0B0FB6F894DEBF69
:103320000FBECDBF09942A88398848885F846E848F
:103330007D848C849B84AA84B984C884DF80EE80D9
:10334000FD800C811B81AA81B981CE0FD11D0FB6E2
:10335000F894DEBF0FBECDBFED0108955058BB27D6
:10336000AA270E94C6190C943D190E942F1938F003
:103370000E94361920F039F49F3F19F426F40C947A
:103380002C190EF4E095E7FB0C942619E92F0E9406
:103390004E1958F3BA17620773078407950720F090
:1033A00079F4A6F50C9470190EF4E0950B2EBA2F53
:1033B000A02D0B01B90190010C01CA01A00111243B
:1033C000FF27591B99F0593F50F4503E68F11A16E7
:1033D000F040A22F232F342F4427585FF3CF469578
:1033E00037952795A795F0405395C9F77EF41F169A
:1033F000BA0B620B730B840BBAF09150A1F0FF0F64
:10340000BB1F661F771F881FC2F70EC0BA0F621F4F
:10341000731F841F48F4879577956795B795F7953F
:103420009E3F08F0B0CF9395880F08F09927EE0FD4
:103430009795879508950E941A1B90F09F3748F43E
:10344000911116F40C94711960E070E080E89FE32C
:10345000089526F01B16611D711D811D0C94F11A33
:103460000C940C1B0E94461A0C943D190E943619AC
:1034700058F00E942F1940F029F45F3F29F00C9476
:10348000261951110C9471190C942C190E944E1983
:1034900068F39923B1F3552391F3951B550BBB2783
:1034A000AA2762177307840738F09F5F5F4F220FC8
:1034B000331F441FAA1FA9F335D00E2E3AF0E0E8BF
:1034C00032D091505040E695001CCAF72BD0FE2F09
:1034D00029D0660F771F881FBB1F2617370748079D
:1034E000AB07B0E809F0BB0B802DBF01FF27935855
:1034F0005F4F3AF09E3F510578F00C9426190C94DA
:1035000071195F3FE4F3983ED4F3869577956795FC
:10351000B795F7959F5FC9F7880F911D9695879589
:1035200097F90895E1E0660F771F881FBB1F6217A8
:1035300073078407BA0720F0621B730B840BBA0B66
:10354000EE1F88F7E09508950E94AB1A6894B111B8
:103550000C94711908950E94561988F09F5798F09D
:10356000B92F9927B751B0F0E1F0660F771F881F88
:10357000991F1AF0BA95C9F714C0B13091F00E94A2
:103580007019B1E008950C947019672F782F88276F
:10359000B85F39F0B93FCCF3869577956795B395C9
:1035A000D9F73EF490958095709561957F4F8F4F38
:1035B0009F4F08950E941A1B90F09F3748F4911175
:1035C00016F00C94711960E070E080E89FEB0895AC
:1035D00026F41B16611D711D811D0C94F11A0C94AB
:1035E0000C1B882371F4772321F09850872B762FBA
:1035F00007C0662311F499270DC09051862B70E007
:1036000060E02AF09A95660F771F881FDAF7880F17
:103610009695879597F908959F3F31F0915020F442
:10362000879577956795B795880F911D969587959E
:1036300097F908950E945619A0F0BEE7B91788F4CB
:10364000BB279F3860F41616B11D672F782F882787
:10365000985FF7CF869577956795B11D93959639C5
:10366000C8F308950E94951808F48FEF0895991BE8
:1036700079E004C0991F961708F0961B881F7A9569
:10368000C9F78095089597FB072E16F4009407D08C
:1036900077FD09D00E94571B07FC05D03EF490959A
:1036A00081959F4F0895709561957F4F0895AA1B4E
:1036B000BB1B51E107C0AA1FBB1FA617B70710F01D
:1036C000A61BB70B881F991F5A95A9F7809590954F
:1036D000BC01CD010895EE0FFF1F0590F491E02D80
:1036E00009940F931F93CF93DF938230910510F4C9
:1036F00082E090E0E091DD02F091DE0220E030E037
:10370000A0E0B0E0309719F140815181028113812E
:1037100048175907C8F08417950769F4109731F0D6
:1037200012960C93129713961C9327C00093DD02F8
:103730001093DE0222C02115310519F042175307FC
:1037400018F49A01BD01EF01DF01F801DBCF21156B
:103750003105F9F0281B390B2430310580F48A81BA
:103760009B816115710521F0FB019383828304C065
:103770009093DE028093DD02FE01329644C0FE018A
:10378000E20FF31F819391932250310939832883EB
:103790003AC02091DB023091DC02232B41F42091CE
:1037A0000201309103013093DC022093DB0220916F
:1037B0000001309101012115310541F42DB73EB7CB
:1037C0004091040150910501241B350BE091DB026F
:1037D000F091DC02E217F307A0F42E1B3F0B281731
:1037E000390778F0AC014E5F5F4F2417350748F07A
:1037F0004E0F5F1F5093DC024093DB028193919345
:1038000002C0E0E0F0E0CF01DF91CF911F910F9176
:103810000895CF93DF93009709F481C0FC0132979C
:1038200013821282A091DD02B091DE02109781F422
:1038300020813181820F931F2091DB023091DC02C5
:103840002817390751F5F093DC02E093DB0267C0DB
:10385000ED0120E030E0CE17DF0740F44A815B81C4
:103860009E0141155105F1F0EA01F5CFD383C283E2
:1038700040815181840F951FC817D90759F4888159
:103880009981840F951F0296918380838A819B8101
:10389000938382832115310529F4F093DE02E093AE
:1038A000DD023DC0E901FB83EA8349915991C40FD0
:1038B000D51FEC17FD0761F480819181840F951F5E
:1038C0000296E90199838883828193819B838A830D
:1038D000E0E0F0E012968D919C911397009719F01B
:1038E000FD01DC01F7CF8D919C9111979D012E5F19
:1038F0003F4F820F931F2091DB023091DC0228178B
:10390000390769F4309729F41092DE021092DD0233
:1039100002C013821282B093DC02A093DB02DF911B
:10392000CF910895A0E0B0E0E8E9FCE10C947B19A8
:10393000EC01009721F4CB010E94711BB4C0FC0183
:10394000E60FF71F9C0122503109E217F30708F434
:10395000A8C0D9010D911C91119706171707B0F057
:103960000530110508F49BC0C80104978617970716
:1039700008F495C002501109061B170B019311930F
:103980006D937C93CF010E94091C89C05B01A01A32
:10399000B10A4C01800E911EA091DD02B091DE02B1
:1039A000612C712CE12CF12C109709F446C08D91FB
:1039B0009C911197A815B905B1F56C0142E0C40EB0
:1039C000D11CCA14DB0478F14C018A189B086401ED
:1039D00042E0C40ED11C1296BC9012971396AC9183
:1039E000B5E0CB16D10440F0B282A38391828082ED
:1039F000D9016D937C9309C00E5F1F4F800F911FFB
:103A0000F90191838083EB2DFA2FE114F10431F059
:103A1000D7011396FC93EE93129741C0F093DE0208
:103A2000E093DD023CC06816790608F43C017D0194
:103A300012960D90BC91A02DB7CF8091DB02909192
:103A4000DC0288169906E1F466167706C8F48091C0
:103A5000000190910101009741F48DB79EB740910C
:103A6000040150910501841B950BE817F907C8F470
:103A7000F093DC02E093DB02F901718360830FC0F5
:103A8000CB010E94711B7C01009759F0A801BE0177
:103A90000E94581DCE010E94091CC70104C0CE011E
:103AA00002C080E090E0CDB7DEB7EEE00C9497194D
:103AB000FB01DC0102C001900D9241505040D8F74B
:103AC0000895FB01DC0101900D920020E1F70895BB
:043AD000F894FFCF98
:103AD4000000DF02800009162D0D13154048530C19
:103AE4001D252E3439362912221C1542B72F1312E4
:103AF4000A110B060000000017048403AE036404DB
:103B0400DF03BD03D10300000000840784034907D9
:103B14004807A80B66068F0667068306770696068F
:103B24006606810ADC0B6E0B340BE00A820725055E
:103B3400C604536572766F20233120506F733A2088
:0C3B440000202020202020000D0A00009E
:00000001FF
